{"contracts/AutoSwapLimit.sol":{"AutoSwapLimit":{"abi":[{"inputs":[{"internalType":"address","name":"_saucerSwapRouter","type":"address"},{"internalType":"address","name":"_backendExecutor","type":"address"}],"stateMutability":"nonpayable","type":"constructor"},{"inputs":[{"internalType":"address","name":"owner","type":"address"}],"name":"OwnableInvalidOwner","type":"error"},{"inputs":[{"internalType":"address","name":"account","type":"address"}],"name":"OwnableUnauthorizedAccount","type":"error"},{"inputs":[],"name":"ReentrancyGuardReentrantCall","type":"error"},{"anonymous":false,"inputs":[{"indexed":true,"internalType":"address","name":"oldExecutor","type":"address"},{"indexed":true,"internalType":"address","name":"newExecutor","type":"address"}],"name":"BackendExecutorUpdated","type":"event"},{"anonymous":false,"inputs":[{"indexed":true,"internalType":"uint256","name":"oldFee","type":"uint256"},{"indexed":true,"internalType":"uint256","name":"newFee","type":"uint256"}],"name":"ExecutionFeeUpdated","type":"event"},{"anonymous":false,"inputs":[{"indexed":true,"internalType":"address","name":"executor","type":"address"}],"name":"ExecutorAdded","type":"event"},{"anonymous":false,"inputs":[{"indexed":true,"internalType":"address","name":"executor","type":"address"}],"name":"ExecutorRemoved","type":"event"},{"anonymous":false,"inputs":[{"indexed":true,"internalType":"uint256","name":"orderId","type":"uint256"},{"indexed":true,"internalType":"address","name":"user","type":"address"}],"name":"OrderCancelled","type":"event"},{"anonymous":false,"inputs":[{"indexed":true,"internalType":"uint256","name":"orderId","type":"uint256"},{"indexed":true,"internalType":"address","name":"user","type":"address"},{"indexed":false,"internalType":"address","name":"tokenOut","type":"address"},{"indexed":false,"internalType":"uint256","name":"amountIn","type":"uint256"},{"indexed":false,"internalType":"uint256","name":"triggerPrice","type":"uint256"}],"name":"OrderCreated","type":"event"},{"anonymous":false,"inputs":[{"indexed":true,"internalType":"uint256","name":"orderId","type":"uint256"},{"indexed":true,"internalType":"address","name":"executor","type":"address"},{"indexed":false,"internalType":"uint256","name":"amountOut","type":"uint256"},{"indexed":false,"internalType":"uint256","name":"executionPrice","type":"uint256"}],"name":"OrderExecuted","type":"event"},{"anonymous":false,"inputs":[{"indexed":true,"internalType":"address","name":"previousOwner","type":"address"},{"indexed":true,"internalType":"address","name":"newOwner","type":"address"}],"name":"OwnershipTransferred","type":"event"},{"anonymous":false,"inputs":[{"indexed":false,"internalType":"bool","name":"enabled","type":"bool"}],"name":"PublicExecutionToggled","type":"event"},{"anonymous":false,"inputs":[{"indexed":true,"internalType":"uint256","name":"orderId","type":"uint256"},{"indexed":false,"internalType":"uint256","name":"amount","type":"uint256"},{"indexed":false,"internalType":"uint256","name":"threshold","type":"uint256"}],"name":"RouterThresholdExceeded","type":"event"},{"anonymous":false,"inputs":[{"indexed":true,"internalType":"address","name":"token","type":"address"}],"name":"SupportedTokenAdded","type":"event"},{"anonymous":false,"inputs":[{"indexed":true,"internalType":"address","name":"token","type":"address"}],"name":"SupportedTokenRemoved","type":"event"},{"anonymous":false,"inputs":[{"indexed":true,"internalType":"address","name":"token","type":"address"},{"indexed":false,"internalType":"int256","name":"responseCode","type":"int256"}],"name":"TokenAssociated","type":"event"},{"anonymous":false,"inputs":[{"indexed":false,"internalType":"address[]","name":"tokens","type":"address[]"},{"indexed":false,"internalType":"int256","name":"responseCode","type":"int256"}],"name":"TokensAssociated","type":"event"},{"inputs":[],"name":"MIN_ORDER_AMOUNT","outputs":[{"internalType":"uint256","name":"","type":"uint256"}],"stateMutability":"view","type":"function"},{"inputs":[],"name":"ROUTER_THRESHOLD","outputs":[{"internalType":"uint256","name":"","type":"uint256"}],"stateMutability":"view","type":"function"},{"inputs":[],"name":"SAUCE","outputs":[{"internalType":"address","name":"","type":"address"}],"stateMutability":"view","type":"function"},{"inputs":[],"name":"USDC","outputs":[{"internalType":"address","name":"","type":"address"}],"stateMutability":"view","type":"function"},{"inputs":[],"name":"WETH","outputs":[{"internalType":"address","name":"","type":"address"}],"stateMutability":"view","type":"function"},{"inputs":[{"internalType":"address","name":"executor","type":"address"}],"name":"addExecutor","outputs":[],"stateMutability":"nonpayable","type":"function"},{"inputs":[{"internalType":"address","name":"token","type":"address"}],"name":"associateTokenToContract","outputs":[],"stateMutability":"nonpayable","type":"function"},{"inputs":[{"internalType":"address[]","name":"tokens","type":"address[]"}],"name":"associateTokensToContract","outputs":[],"stateMutability":"nonpayable","type":"function"},{"inputs":[{"internalType":"address","name":"","type":"address"}],"name":"authorizedExecutors","outputs":[{"internalType":"bool","name":"","type":"bool"}],"stateMutability":"view","type":"function"},{"inputs":[],"name":"backendExecutor","outputs":[{"internalType":"address","name":"","type":"address"}],"stateMutability":"view","type":"function"},{"inputs":[{"internalType":"uint256","name":"orderId","type":"uint256"}],"name":"canExecuteOrder","outputs":[{"internalType":"bool","name":"canExecute","type":"bool"},{"internalType":"string","name":"reason","type":"string"}],"stateMutability":"view","type":"function"},{"inputs":[{"internalType":"uint256","name":"orderId","type":"uint256"}],"name":"cancelSwapOrder","outputs":[],"stateMutability":"nonpayable","type":"function"},{"inputs":[{"internalType":"address","name":"tokenOut","type":"address"},{"internalType":"uint256","name":"minAmountOut","type":"uint256"},{"internalType":"uint256","name":"triggerPrice","type":"uint256"},{"internalType":"uint256","name":"expirationTime","type":"uint256"}],"name":"createSwapOrder","outputs":[],"stateMutability":"payable","type":"function"},{"inputs":[{"internalType":"uint256","name":"orderId","type":"uint256"},{"internalType":"uint256","name":"currentPrice","type":"uint256"}],"name":"executeSwapOrder","outputs":[],"stateMutability":"nonpayable","type":"function"},{"inputs":[],"name":"executionFee","outputs":[{"internalType":"uint256","name":"","type":"uint256"}],"stateMutability":"view","type":"function"},{"inputs":[{"internalType":"uint256","name":"","type":"uint256"}],"name":"executorList","outputs":[{"internalType":"address","name":"","type":"address"}],"stateMutability":"view","type":"function"},{"inputs":[],"name":"getAuthorizedExecutors","outputs":[{"internalType":"address[]","name":"","type":"address[]"}],"stateMutability":"view","type":"function"},{"inputs":[],"name":"getAvailableTokens","outputs":[{"internalType":"address","name":"usdcAddress","type":"address"},{"internalType":"string","name":"usdcInfo","type":"string"},{"internalType":"address","name":"sauceAddress","type":"address"},{"internalType":"string","name":"sauceInfo","type":"string"}],"stateMutability":"pure","type":"function"},{"inputs":[],"name":"getContractBalance","outputs":[{"internalType":"uint256","name":"","type":"uint256"}],"stateMutability":"view","type":"function"},{"inputs":[],"name":"getContractConfig","outputs":[{"internalType":"uint256","name":"currentExecutionFee","type":"uint256"},{"internalType":"uint256","name":"minOrderAmount","type":"uint256"},{"internalType":"address","name":"currentBackendExecutor","type":"address"},{"internalType":"uint256","name":"currentNextOrderId","type":"uint256"},{"internalType":"uint256","name":"routerThreshold","type":"uint256"},{"internalType":"address","name":"whbarAddress","type":"address"}],"stateMutability":"view","type":"function"},{"inputs":[{"internalType":"address","name":"tokenOut","type":"address"},{"internalType":"uint256","name":"amountIn","type":"uint256"}],"name":"getEstimatedAmountOut","outputs":[{"internalType":"uint256","name":"","type":"uint256"}],"stateMutability":"view","type":"function"},{"inputs":[],"name":"getExecutionConfig","outputs":[{"internalType":"bool","name":"publicExecutionEnabled_","type":"bool"},{"internalType":"uint256","name":"authorizedExecutorCount","type":"uint256"},{"internalType":"address","name":"backendExecutor_","type":"address"}],"stateMutability":"view","type":"function"},{"inputs":[],"name":"getMinimumHbarForOrder","outputs":[{"internalType":"uint256","name":"","type":"uint256"}],"stateMutability":"view","type":"function"},{"inputs":[{"internalType":"address","name":"tokenOut","type":"address"}],"name":"getOptimalPathPreview","outputs":[{"internalType":"address[]","name":"path","type":"address[]"},{"internalType":"string","name":"pathInfo","type":"string"}],"stateMutability":"view","type":"function"},{"inputs":[{"internalType":"uint256","name":"orderId","type":"uint256"}],"name":"getOrderDetails","outputs":[{"components":[{"internalType":"address","name":"tokenOut","type":"address"},{"internalType":"uint256","name":"amountIn","type":"uint256"},{"internalType":"uint256","name":"minAmountOut","type":"uint256"},{"internalType":"uint256","name":"triggerPrice","type":"uint256"},{"internalType":"address","name":"owner","type":"address"},{"internalType":"bool","name":"isActive","type":"bool"},{"internalType":"uint256","name":"expirationTime","type":"uint256"},{"internalType":"bool","name":"isExecuted","type":"bool"}],"internalType":"struct AutoSwapLimit.SwapOrder","name":"","type":"tuple"}],"stateMutability":"view","type":"function"},{"inputs":[],"name":"getRouterInfo","outputs":[{"internalType":"address","name":"routerAddress","type":"address"},{"internalType":"address","name":"whbarFromRouter","type":"address"},{"internalType":"address","name":"factoryAddress","type":"address"},{"internalType":"uint256","name":"thresholdTinybars","type":"uint256"},{"internalType":"uint256","name":"thresholdHBAR","type":"uint256"}],"stateMutability":"view","type":"function"},{"inputs":[],"name":"getRouterThresholdHBAR","outputs":[{"internalType":"uint256","name":"","type":"uint256"}],"stateMutability":"pure","type":"function"},{"inputs":[],"name":"getSupportedTokenCount","outputs":[{"internalType":"uint256","name":"","type":"uint256"}],"stateMutability":"view","type":"function"},{"inputs":[],"name":"getSupportedTokens","outputs":[{"internalType":"address[]","name":"","type":"address[]"}],"stateMutability":"view","type":"function"},{"inputs":[{"internalType":"address","name":"user","type":"address"}],"name":"getUserOrderCount","outputs":[{"internalType":"uint256","name":"","type":"uint256"}],"stateMutability":"view","type":"function"},{"inputs":[{"internalType":"address","name":"user","type":"address"}],"name":"getUserOrders","outputs":[{"internalType":"uint256[]","name":"","type":"uint256[]"}],"stateMutability":"view","type":"function"},{"inputs":[{"internalType":"address","name":"executor","type":"address"}],"name":"isAuthorizedExecutor","outputs":[{"internalType":"bool","name":"","type":"bool"}],"stateMutability":"view","type":"function"},{"inputs":[{"internalType":"address","name":"","type":"address"}],"name":"isSupportedToken","outputs":[{"internalType":"bool","name":"","type":"bool"}],"stateMutability":"view","type":"function"},{"inputs":[{"internalType":"address","name":"token","type":"address"}],"name":"isTokenSupported","outputs":[{"internalType":"bool","name":"","type":"bool"}],"stateMutability":"view","type":"function"},{"inputs":[{"internalType":"uint256","name":"orderId","type":"uint256"}],"name":"isValidOrder","outputs":[{"internalType":"bool","name":"","type":"bool"}],"stateMutability":"view","type":"function"},{"inputs":[],"name":"nextOrderId","outputs":[{"internalType":"uint256","name":"","type":"uint256"}],"stateMutability":"view","type":"function"},{"inputs":[],"name":"owner","outputs":[{"internalType":"address","name":"","type":"address"}],"stateMutability":"view","type":"function"},{"inputs":[],"name":"publicExecutionEnabled","outputs":[{"internalType":"bool","name":"","type":"bool"}],"stateMutability":"view","type":"function"},{"inputs":[{"internalType":"address","name":"executor","type":"address"}],"name":"removeExecutor","outputs":[],"stateMutability":"nonpayable","type":"function"},{"inputs":[{"internalType":"address","name":"token","type":"address"}],"name":"removeSupportedToken","outputs":[],"stateMutability":"nonpayable","type":"function"},{"inputs":[],"name":"renounceOwnership","outputs":[],"stateMutability":"nonpayable","type":"function"},{"inputs":[],"name":"saucerSwapRouter","outputs":[{"internalType":"contract ISaucerSwapRouter","name":"","type":"address"}],"stateMutability":"view","type":"function"},{"inputs":[{"internalType":"uint256","name":"","type":"uint256"}],"name":"supportedTokens","outputs":[{"internalType":"address","name":"","type":"address"}],"stateMutability":"view","type":"function"},{"inputs":[{"internalType":"uint256","name":"","type":"uint256"}],"name":"swapOrders","outputs":[{"internalType":"address","name":"tokenOut","type":"address"},{"internalType":"uint256","name":"amountIn","type":"uint256"},{"internalType":"uint256","name":"minAmountOut","type":"uint256"},{"internalType":"uint256","name":"triggerPrice","type":"uint256"},{"internalType":"address","name":"owner","type":"address"},{"internalType":"bool","name":"isActive","type":"bool"},{"internalType":"uint256","name":"expirationTime","type":"uint256"},{"internalType":"bool","name":"isExecuted","type":"bool"}],"stateMutability":"view","type":"function"},{"inputs":[{"internalType":"bool","name":"enabled","type":"bool"}],"name":"togglePublicExecution","outputs":[],"stateMutability":"nonpayable","type":"function"},{"inputs":[{"internalType":"address","name":"newOwner","type":"address"}],"name":"transferOwnership","outputs":[],"stateMutability":"nonpayable","type":"function"},{"inputs":[{"internalType":"address","name":"newBackendExecutor","type":"address"}],"name":"updateBackendExecutor","outputs":[],"stateMutability":"nonpayable","type":"function"},{"inputs":[{"internalType":"uint256","name":"newFee","type":"uint256"}],"name":"updateExecutionFee","outputs":[],"stateMutability":"nonpayable","type":"function"},{"inputs":[{"internalType":"address","name":"","type":"address"},{"internalType":"uint256","name":"","type":"uint256"}],"name":"userOrders","outputs":[{"internalType":"uint256","name":"","type":"uint256"}],"stateMutability":"view","type":"function"},{"inputs":[],"name":"withdrawFees","outputs":[],"stateMutability":"nonpayable","type":"function"},{"stateMutability":"payable","type":"receive"}],"evm":{"bytecode":{"linkReferences":{},"object":"60c06040526001600881905562989680600955600a805460ff191690911790553480156200002c57600080fd5b5060405162003d8c38038062003d8c8339810160408190526200004f9162000586565b33806200007757604051631e4fbdf760e01b8152600060048201526024015b60405180910390fd5b620000828162000356565b50600180556001600160a01b038216620000df5760405162461bcd60e51b815260206004820152601d60248201527f526f7574657220616464726573732063616e6e6f74206265207a65726f00000060448201526064016200006e565b6001600160a01b038116620001375760405162461bcd60e51b815260206004820152601f60248201527f4261636b656e64206578656375746f722063616e6e6f74206265207a65726f0060448201526064016200006e565b6001600160a01b038216608081905260408051631a0fcb6560e31b8152905163d07e5b28916004808201926020929091908290030181865afa15801562000182573d6000803e3d6000fd5b505050506040513d601f19601f82011682018060405250810190620001a89190620005be565b6001600160a01b031660a0819052620002155760405162461bcd60e51b815260206004820152602860248201527f574842415220616464726573732066726f6d20726f757465722063616e6e6f74604482015267206265207a65726f60c01b60648201526084016200006e565b600a8054610100600160a81b0319166101006001600160a01b0384169081029190911790915560008181526006602090815260408220805460ff199081166001908117909255600780548084019091557fa66cc928b5edb82af9bd49922954155ab7b0942694bea4ce44661d9a8736c6880180546001600160a01b031990811690961790556002805480840182557f405787fa12a823e0f2b7631cc41b3ba8828b3321ca811111fa75cd3aa3bb5ace9081018054611549908916179055815480850190925501805462120f4696168617905560039092527f63dd3e1a480a7987a350d2242e60aaf19cc95f8ad9a84fd2187eb86519ab29c78054831682179055929091527f55b45afa6210a3a6a1ed8531e75ff5f6de6ba595f5d7b431794c8634955bf709805490911690911790556200034e620003a6565b5050620006e8565b600080546001600160a01b038381166001600160a01b0319831681178455604051919092169283917f8be0079c531659141344cd1fd0a4f28419497f9722a3daafe3b4186f6b6457e09190a35050565b60408051600280825260608201835260009260208301908036833701905050905061154981600081518110620003e057620003e0620005e3565b60200260200101906001600160a01b031690816001600160a01b03168152505062120f46816001815181106200041a576200041a620005e3565b6001600160a01b0390921660209283029190910190910152600062000440308362000481565b90507fd238ac3ac1cfdaf20bd2c563456827d1695ec8485cd028eda65e04f75c9052d682826040516200047592919062000640565b60405180910390a15050565b60008060006101676001600160a01b0316632e63879b60e01b8686604051602401620004af92919062000664565b60408051601f198184030181529181526020820180516001600160e01b03166001600160e01b0319909416939093179092529051620004ef919062000692565b6000604051808303816000865af19150503d80600081146200052e576040519150601f19603f3d011682016040523d82523d6000602084013e62000533565b606091505b50915091508162000547576000196200055d565b808060200190518101906200055d9190620006c3565b60030b95945050505050565b80516001600160a01b03811681146200058157600080fd5b919050565b600080604083850312156200059a57600080fd5b620005a58362000569565b9150620005b56020840162000569565b90509250929050565b600060208284031215620005d157600080fd5b620005dc8262000569565b9392505050565b634e487b7160e01b600052603260045260246000fd5b60008151808452602080850194506020840160005b83811015620006355781516001600160a01b0316875295820195908201906001016200060e565b509495945050505050565b604081526000620006556040830185620005f9565b90508260208301529392505050565b6001600160a01b03831681526040602082018190526000906200068a90830184620005f9565b949350505050565b6000825160005b81811015620006b5576020818601810151858301520162000699565b506000920191825250919050565b600060208284031215620006d657600080fd5b81518060030b8114620005dc57600080fd5b60805160a05161363f6200074d600039600081816104f3015281816107b101528181612bd901528181612ca30152612d510152600081816102eb0152818161127e0152818161223401528181612255015281816122d701526126a5015261363f6000f3fe6080604052600436106102cd5760003560e01c80637631919011610175578063c6255626116100dc578063ea74ff7e11610095578063f1ecb1b01161006f578063f1ecb1b014610b6f578063f2fde38b14610b8f578063f5d0648614610baf578063f882ac0714610bcf57600080fd5b8063ea74ff7e146109b8578063ec7dd7bb146109cf578063ef132bce14610b2357600080fd5b8063c6255626146108d6578063ce67be26146108f6578063d3c7c2c71461090b578063d3f8f17814610920578063e0d98bdd14610945578063e35568cb1461099357600080fd5b8063a4f790f41161012e578063a4f790f414610757578063ad42f79214610771578063ad5c46481461079f578063af61b24b146107d3578063b15db81f146107f5578063bc9e6101146108b657600080fd5b806376319190146106ae578063856652e9146106ce57806386d630d7146106ee57806389a30271146107035780638da5cb5b14610719578063a303c96f1461073757600080fd5b806330aaece0116102345780635c10fc02116101ed5780636f9fb98a116101c75780636f9fb98a1461062d5780636ffbe52e14610640578063715018a61461066057806375151b631461067557600080fd5b80635c10fc02146105a257806363c69f08146105d0578063679d86a7146105fd57600080fd5b806330aaece0146104a7578063360dcecc1461052057806340bf2aa41461054057806340e9903b14610557578063462bdfa61461056d578063476343ee1461058d57600080fd5b8063247884291161028657806324788429146103e257806325f732ee14610402578063273fc856146104225780632a58b330146104425780632cc759671461045857806330704ef21461048e57600080fd5b80630d07be2d146102d95780631f5a0bbe1461032a57806322edf7b31461034c578063232102f31461035f578063238dfd1a14610382578063240028e8146103a257600080fd5b366102d457005b600080fd5b3480156102e557600080fd5b5061030d7f000000000000000000000000000000000000000000000000000000000000000081565b6040516001600160a01b0390911681526020015b60405180910390f35b34801561033657600080fd5b5061034a610345366004612f8c565b610bef565b005b61034a61035a366004612fb0565b610d47565b34801561036b57600080fd5b50610374611254565b604051908152602001610321565b34801561038e57600080fd5b5061037461039d366004612feb565b61126c565b3480156103ae57600080fd5b506103d26103bd366004612f8c565b60036020526000908152604090205460ff1681565b6040519015158152602001610321565b3480156103ee57600080fd5b5061034a6103fd366004612f8c565b611343565b34801561040e57600080fd5b5061034a61041d366004612f8c565b61156a565b34801561042e57600080fd5b5061034a61043d366004613082565b6116d8565b34801561044e57600080fd5b5061037460085481565b34801561046457600080fd5b50610374610473366004612f8c565b6001600160a01b031660009081526005602052604090205490565b34801561049a57600080fd5b50610374640430e2340081565b3480156104b357600080fd5b50600954600a5460085460408051938452620f424060208501526001600160a01b036101009093048316908401526060830152640430e2340060808301527f00000000000000000000000000000000000000000000000000000000000000001660a082015260c001610321565b34801561052c57600080fd5b5061034a61053b366004612f8c565b6118d2565b34801561054c57600080fd5b50610374620f424081565b34801561056357600080fd5b5061037460095481565b34801561057957600080fd5b506103d2610588366004612f8c565b611b1e565b34801561059957600080fd5b5061034a611b72565b3480156105ae57600080fd5b506105c26105bd366004612f8c565b611bf8565b6040516103219291906131b6565b3480156105dc57600080fd5b506105f06105eb366004612f8c565b611c92565b60405161032191906131e4565b34801561060957600080fd5b506103d2610618366004612f8c565b60066020526000908152604090205460ff1681565b34801561063957600080fd5b5047610374565b34801561064c57600080fd5b5061034a61065b366004613228565b611cfe565b34801561066c57600080fd5b5061034a611d4d565b34801561068157600080fd5b506103d2610690366004612f8c565b6001600160a01b031660009081526003602052604090205460ff1690565b3480156106ba57600080fd5b5061034a6106c9366004612f8c565b611d61565b3480156106da57600080fd5b506103746106e9366004612feb565b611f1e565b3480156106fa57600080fd5b50610374611f4f565b34801561070f57600080fd5b5061030d61154981565b34801561072557600080fd5b506000546001600160a01b031661030d565b34801561074357600080fd5b5061030d61075236600461324a565b611f64565b34801561076357600080fd5b50600a546103d29060ff1681565b34801561077d57600080fd5b5061079161078c36600461324a565b611f8e565b604051610321929190613263565b3480156107ab57600080fd5b5061030d7f000000000000000000000000000000000000000000000000000000000000000081565b3480156107df57600080fd5b506107e861211d565b6040516103219190613286565b34801561080157600080fd5b5061086761081036600461324a565b600460208190526000918252604090912080546001820154600283015460038401549484015460058501546006909501546001600160a01b03948516969395929482169260ff600160a01b90930483169290911688565b604080516001600160a01b03998a168152602081019890985287019590955260608601939093529416608084015292151560a083015260c082019290925290151560e082015261010001610321565b3480156108c257600080fd5b506103d26108d136600461324a565b61217f565b3480156108e257600080fd5b5061030d6108f136600461324a565b6121ba565b34801561090257600080fd5b50600254610374565b34801561091757600080fd5b506107e86121ca565b34801561092c57600080fd5b50600a5461030d9061010090046001600160a01b031681565b34801561095157600080fd5b5061095a61222a565b604080516001600160a01b039687168152948616602086015292909416918301919091526060820152608081019190915260a001610321565b34801561099f57600080fd5b506109a861237c565b6040516103219493929190613299565b3480156109c457600080fd5b5061030d62120f4681565b3480156109db57600080fd5b50610ab26109ea36600461324a565b6040805161010081018252600080825260208201819052918101829052606081018290526080810182905260a0810182905260c0810182905260e08101919091525060009081526004602081815260409283902083516101008101855281546001600160a01b0390811682526001830154938201939093526002820154948101949094526003810154606085015291820154908116608084015260ff600160a01b9091048116151560a0840152600582015460c084015260069091015416151560e082015290565b604051610321919060006101008201905060018060a01b038084511683526020840151602084015260408401516040840152606084015160608401528060808501511660808401525060a0830151151560a083015260c083015160c083015260e0830151151560e083015292915050565b348015610b2f57600080fd5b50600a5460075460ff82169161010090046001600160a01b031660408051931515845260208401929092526001600160a01b031690820152606001610321565b348015610b7b57600080fd5b5061034a610b8a3660046132e1565b6123cc565b348015610b9b57600080fd5b5061034a610baa366004612f8c565b6127e0565b348015610bbb57600080fd5b5061034a610bca36600461324a565b61281e565b348015610bdb57600080fd5b5061034a610bea36600461324a565b612903565b610bf7612b52565b6001600160a01b038116610c525760405162461bcd60e51b815260206004820152601f60248201527f4578656375746f722063616e6e6f74206265207a65726f20616464726573730060448201526064015b60405180910390fd5b6001600160a01b03811660009081526006602052604090205460ff1615610cbb5760405162461bcd60e51b815260206004820152601b60248201527f4578656375746f7220616c726561647920617574686f72697a656400000000006044820152606401610c49565b6001600160a01b038116600081815260066020526040808220805460ff1916600190811790915560078054918201815583527fa66cc928b5edb82af9bd49922954155ab7b0942694bea4ce44661d9a8736c6880180546001600160a01b03191684179055517fae5b7c3b000f575c241001dc9bcb3d8778376889353b07121115574eceff78c59190a250565b6009543411610dad5760405162461bcd60e51b815260206004820152602c60248201527f496e73756666696369656e7420484241523a206d75737420657863656564206560448201526b7865637574696f6e2066656560a01b6064820152608401610c49565b60008311610e0b5760405162461bcd60e51b815260206004820152602560248201527f4d696e696d756d20616d6f756e74206d75737420626520677265617465722074604482015264068616e20360dc1b6064820152608401610c49565b60008211610e675760405162461bcd60e51b8152602060048201526024808201527f54726967676572207072696365206d75737420626520677265617465722074686044820152630616e20360e41b6064820152608401610c49565b428111610ec45760405162461bcd60e51b815260206004820152602560248201527f45787069726174696f6e2074696d65206d75737420626520696e207468652066604482015264757475726560d81b6064820152608401610c49565b610ed14262278d00613319565b811115610f2a5760405162461bcd60e51b815260206004820152602160248201527f45787069726174696f6e2074696d6520746f6f2066617220696e2066757475726044820152606560f81b6064820152608401610c49565b6001600160a01b038416610f805760405162461bcd60e51b815260206004820152601c60248201527f496e76616c6964206f757470757420746f6b656e2061646472657373000000006044820152606401610c49565b6001600160a01b03841660009081526003602052604090205460ff16610fe85760405162461bcd60e51b815260206004820152601f60248201527f546f6b656e206e6f7420737570706f7274656420627920636f6e7472616374006044820152606401610c49565b600060095434610ff8919061332c565b9050620f42408110156110735760405162461bcd60e51b815260206004820152603960248201527f4f7264657220616d6f756e7420746f6f20736d616c6c3a206d7573742062652060448201527f6174206c65617374204d494e5f4f524445525f414d4f554e54000000000000006064820152608401610c49565b640430e234008111156110ee5760405162461bcd60e51b815260206004820152603c60248201527f4f7264657220616d6f756e7420746f6f206c617267653a20657863656564732060448201527f3138302048424152206c696d697420666f7220726f75746572205631000000006064820152608401610c49565b60408051610100810182526001600160a01b0380881682526020808301858152838501898152606085018981523360808701818152600160a0890181815260c08a018d8152600060e08c018181526008805483526004808d528f84209e518f54908f166001600160a01b0319909116178f559a518e870155985160028e0155965160038d01559351978b01805492511515600160a01b026001600160a81b031990931698909a169790971717909755935160058089019190915591516006909701805497151560ff1990981697909717909655858352835285822081548154958601825590835292909120909201555491519091907f5f88d55333195757ca319aa0ac617520059267f8245f2067982a6caaf6916b8190611230908990869089906001600160a01b039390931683526020830191909152604082015260600190565b60405180910390a3600880549060006112488361333f565b91905055505050505050565b6000620f42406009546112679190613319565b905090565b60008061127884612b7f565b905060007f00000000000000000000000000000000000000000000000000000000000000006001600160a01b031663d06ca61f85846040518363ffffffff1660e01b81526004016112ca929190613358565b600060405180830381865afa1580156112e7573d6000803e3d6000fd5b505050506040513d6000823e601f3d908101601f1916820160405261130f9190810190613371565b90508060018351611320919061332c565b81518110611330576113306133f7565b6020026020010151925050505b92915050565b61134b612b52565b6001600160a01b03811660009081526006602052604090205460ff166113b35760405162461bcd60e51b815260206004820152601760248201527f4578656375746f72206e6f7420617574686f72697a65640000000000000000006044820152606401610c49565b600a546001600160a01b036101009091048116908216036114165760405162461bcd60e51b815260206004820152601e60248201527f43616e6e6f742072656d6f7665206261636b656e64206578656375746f7200006044820152606401610c49565b6001600160a01b0381166000908152600660205260408120805460ff191690555b60075481101561153257816001600160a01b03166007828154811061145e5761145e6133f7565b6000918252602090912001546001600160a01b03160361152a57600780546114889060019061332c565b81548110611498576114986133f7565b600091825260209091200154600780546001600160a01b0390921691839081106114c4576114c46133f7565b9060005260206000200160006101000a8154816001600160a01b0302191690836001600160a01b0316021790555060078054806115035761150361340d565b600082815260209020810160001990810180546001600160a01b0319169055019055611532565b600101611437565b506040516001600160a01b038216907f4a2cf608bfb427f53279ec7f0eadf48913b9346ccefc3af138dbdec14ea0907d90600090a250565b611572612b52565b6001600160a01b0381166115c85760405162461bcd60e51b815260206004820152601c60248201527f546f6b656e20616464726573732063616e6e6f74206265207a65726f000000006044820152606401610c49565b60006115d43083612ded565b9050816001600160a01b03167fd16128da1c91b1ad9488bc6ea60e822a8fb0573117b34c9a171bd7d567b602928260405161161191815260200190565b60405180910390a260168114801561164257506001600160a01b03821660009081526003602052604090205460ff16155b156116d4576002805460018082019092557f405787fa12a823e0f2b7631cc41b3ba8828b3321ca811111fa75cd3aa3bb5ace0180546001600160a01b0319166001600160a01b038516908117909155600081815260036020526040808220805460ff1916909417909355915190917fd1be2e90bd3d24839d9dd94ad871068e1f9688b02fa43f2a62c9975dfa9de2d791a25b5050565b6116e0612b52565b60008151116117315760405162461bcd60e51b815260206004820152601c60248201527f546f6b656e732061727261792063616e6e6f7420626520656d707479000000006044820152606401610c49565b600061173d3083612ed1565b90507fd238ac3ac1cfdaf20bd2c563456827d1695ec8485cd028eda65e04f75c9052d68282604051611770929190613423565b60405180910390a160151981016116d45760005b82518110156118cd57600360008483815181106117a3576117a36133f7565b6020908102919091018101516001600160a01b031682528101919091526040016000205460ff166118c55760028382815181106117e2576117e26133f7565b60209081029190910181015182546001808201855560009485529284200180546001600160a01b0319166001600160a01b0390921691909117905584519091600391869085908110611836576118366133f7565b60200260200101516001600160a01b03166001600160a01b0316815260200190815260200160002060006101000a81548160ff021916908315150217905550828181518110611887576118876133f7565b60200260200101516001600160a01b03167fd1be2e90bd3d24839d9dd94ad871068e1f9688b02fa43f2a62c9975dfa9de2d760405160405180910390a25b600101611784565b505050565b6118da612b52565b6001600160a01b0381166119305760405162461bcd60e51b815260206004820152601f60248201527f4261636b656e64206578656375746f722063616e6e6f74206265207a65726f006044820152606401610c49565b600a5461010090046001600160a01b03166000908152600660205260408120805460ff191690555b600754811015611a6857600a60019054906101000a90046001600160a01b03166001600160a01b031660078281548110611994576119946133f7565b6000918252602090912001546001600160a01b031603611a6057600780546119be9060019061332c565b815481106119ce576119ce6133f7565b600091825260209091200154600780546001600160a01b0390921691839081106119fa576119fa6133f7565b9060005260206000200160006101000a8154816001600160a01b0302191690836001600160a01b031602179055506007805480611a3957611a3961340d565b600082815260209020810160001990810180546001600160a01b0319169055019055611a68565b600101611958565b50600a80546001600160a01b03838116610100818102610100600160a81b0319851617909455600081815260066020526040808220805460ff1916600190811790915560078054918201815583527fa66cc928b5edb82af9bd49922954155ab7b0942694bea4ce44661d9a8736c6880180546001600160a01b0319168417905551949093049190911692909183917f55c8a61e579c1e7ff31361e5c0b80557c4f48f25fa988102cb7b1cfae901d9619190a35050565b6001600160a01b03811660009081526006602052604081205460ff1680611b575750600a546001600160a01b0383811661010090920416145b8061133d5750506000546001600160a01b0391821691161490565b611b7a612b52565b4780611bbf5760405162461bcd60e51b81526020600482015260146024820152734e6f2066756e647320746f20776974686472617760601b6044820152606401610c49565b600080546040516001600160a01b039091169183156108fc02918491818181858888f193505050501580156116d4573d6000803e3d6000fd5b606080611c0483612b7f565b91508151600203611c2f576040518060600160405280602281526020016135b8602291399050915091565b8151600303611c58576040518060600160405280602d8152602001613556602d91399050915091565b5060408051808201909152601a81527f556e6b6e6f776e207061746820636f6e66696775726174696f6e0000000000006020820152915091565b6001600160a01b038116600090815260056020908152604091829020805483518184028101840190945280845260609392830182828015611cf257602002820191906000526020600020905b815481526020019060010190808311611cde575b50505050509050919050565b611d06612b52565b600a805460ff19168215159081179091556040519081527f502eba244433bce361d14ca9ee109349073f639b866cb6a1810bcf4d9e839ba99060200160405180910390a150565b611d55612b52565b611d5f6000612efd565b565b611d69612b52565b6001600160a01b03811660009081526003602052604090205460ff16611dca5760405162461bcd60e51b8152602060048201526016602482015275151bdad95b881a5cc81b9bdd081cdd5c1c1bdc9d195960521b6044820152606401610c49565b6001600160a01b0381166000908152600360205260408120805460ff191690555b600254811015611ee657816001600160a01b031660028281548110611e1257611e126133f7565b6000918252602090912001546001600160a01b031603611ede5760028054611e3c9060019061332c565b81548110611e4c57611e4c6133f7565b600091825260209091200154600280546001600160a01b039092169183908110611e7857611e786133f7565b9060005260206000200160006101000a8154816001600160a01b0302191690836001600160a01b031602179055506002805480611eb757611eb761340d565b600082815260209020810160001990810180546001600160a01b0319169055019055611ee6565b600101611deb565b506040516001600160a01b038216907fbea12876694c4055c71f74308f752b9027cf3d554194000a366abddfc239a30690600090a250565b60056020528160005260406000208181548110611f3a57600080fd5b90600052602060002001600091509150505481565b60006112676305f5e100640430e23400613445565b60078181548110611f7457600080fd5b6000918252602090912001546001600160a01b0316905081565b60006060611f9b8361217f565b611fd057505060408051808201909152601081526f125b9d985b1a59081bdc99195c88125160821b6020820152600092909150565b600083815260046020819052604090912090810154600160a01b900460ff166120285760006040518060400160405280601081526020016f4f72646572206e6f742061637469766560801b8152509250925050915091565b600681015460ff16156120705760006040518060400160405280601681526020017513dc99195c88185b1c9958591e48195e1958dd5d195960521b8152509250925050915091565b806005015442106120ad5760006040518060400160405280600d81526020016c13dc99195c88195e1c1a5c9959609a1b8152509250925050915091565b6001810154640430e2340010156120e35760006040518060600160405280603081526020016135da603091399250925050915091565b60016040518060400160405280601581526020017413dc99195c8818d85b88189948195e1958dd5d1959605a1b8152509250925050915091565b6060600780548060200260200160405190810160405280929190818152602001828054801561217557602002820191906000526020600020905b81546001600160a01b03168152600190910190602001808311612157575b5050505050905090565b60008082118015612191575060085482105b801561133d575050600090815260046020819052604090912001546001600160a01b0316151590565b60028181548110611f7457600080fd5b60606002805480602002602001604051908101604052809291908181526020018280548015612175576020028201919060005260206000209081546001600160a01b03168152600190910190602001808311612157575050505050905090565b60008060008060007f00000000000000000000000000000000000000000000000000000000000000007f00000000000000000000000000000000000000000000000000000000000000006001600160a01b031663d07e5b286040518163ffffffff1660e01b8152600401602060405180830381865afa1580156122b1573d6000803e3d6000fd5b505050506040513d601f19601f820116820180604052508101906122d59190613467565b7f00000000000000000000000000000000000000000000000000000000000000006001600160a01b031663c45a01556040518163ffffffff1660e01b8152600401602060405180830381865afa158015612333573d6000803e3d6000fd5b505050506040513d601f19601f820116820180604052508101906123579190613467565b640430e2340061236b6305f5e10082613445565b945094509450945094509091929394565b600060606000606061154962120f46604051806060016040528060358152602001613583603591399060405180606001604052806039815260200161351d60399139935093509350935090919293565b6123d4612f4d565b600a5460ff16806123f457503360009081526006602052604090205460ff165b8061240e5750600a5461010090046001600160a01b031633145b8061242357506000546001600160a01b031633145b61246f5760405162461bcd60e51b815260206004820181905260248201527f4e6f7420617574686f72697a656420746f2065786563757465206f72646572736044820152606401610c49565b600082815260046020819052604090912001548290600160a01b900460ff166124cd5760405162461bcd60e51b815260206004820152601060248201526f4f72646572206e6f742061637469766560801b6044820152606401610c49565b60008181526004602052604090206006015460ff16156125285760405162461bcd60e51b815260206004820152601660248201527513dc99195c88185b1c9958591e48195e1958dd5d195960521b6044820152606401610c49565b60008181526004602052604090206005015442106125785760405162461bcd60e51b815260206004820152600d60248201526c13dc99195c88195e1c1a5c9959609a1b6044820152606401610c49565b600083815260046020526040902060038101548310156125da5760405162461bcd60e51b815260206004820152601c60248201527f507269636520646f6573206e6f742072656163682074726967676572000000006044820152606401610c49565b6001810154640430e2340010156126335760405162461bcd60e51b815260206004820152601d60248201527f4f72646572206578636565647320726f75746572205631206c696d69740000006044820152606401610c49565b60048101805460ff60a01b1916905560068101805460ff191660011790558054600090612668906001600160a01b0316612b7f565b9050600061267842610258613319565b60018401546002850154600480870154604051637ff36ab560e01b81529495506000946001600160a01b037f0000000000000000000000000000000000000000000000000000000000000000811695637ff36ab59590946126e49491938b9392909216918a9101613484565b60006040518083038185885af1158015612702573d6000803e3d6000fd5b50505050506040513d6000823e601f3d908101601f1916820160405261272b9190810190613371565b90506000816001855161273e919061332c565b8151811061274e5761274e6133f7565b60200260200101519050336001600160a01b03166108fc6009549081150290604051600060405180830381858888f19350505050158015612793573d6000803e3d6000fd5b50604080518281526020810189905233918a917f79e7fef5cd17ce2c61fe594632f498fbf07d1bf082540b02861ad2a3afb745e0910160405180910390a35050505050506116d460018055565b6127e8612b52565b6001600160a01b03811661281257604051631e4fbdf760e01b815260006004820152602401610c49565b61281b81612efd565b50565b612826612b52565b600081116128765760405162461bcd60e51b815260206004820152601a60248201527f466565206d7573742062652067726561746572207468616e20300000000000006044820152606401610c49565b633b9aca008111156128ca5760405162461bcd60e51b815260206004820152601960248201527f46656520746f6f20686967683a206d61782031302048424152000000000000006044820152606401610c49565b6009805490829055604051829082907ffcec6bf21775eced516e9cd1ecede9227f19db60fa30e1dea6d3891edef12ed890600090a35050565b6000818152600460208190526040909120015481906001600160a01b0316331461297b5760405162461bcd60e51b815260206004820152602360248201527f596f7520617265206e6f7420746865206f776e6572206f662074686973206f726044820152623232b960e91b6064820152608401610c49565b600082815260046020819052604090912001548290600160a01b900460ff166129d95760405162461bcd60e51b815260206004820152601060248201526f4f72646572206e6f742061637469766560801b6044820152606401610c49565b60008181526004602052604090206006015460ff1615612a345760405162461bcd60e51b815260206004820152601660248201527513dc99195c88185b1c9958591e48195e1958dd5d195960521b6044820152606401610c49565b6000818152600460205260409020600501544210612a845760405162461bcd60e51b815260206004820152600d60248201526c13dc99195c88195e1c1a5c9959609a1b6044820152606401610c49565b6000838152600460208190526040808320918201805460ff60a01b1981169091556001830154915192936001600160a01b039091169282156108fc029291818181858888f19350505050158015612adf573d6000803e3d6000fd5b5060048101546009546040516001600160a01b039092169181156108fc0291906000818181858888f19350505050158015612b1e573d6000803e3d6000fd5b50604051339085907fc0362da6f2ff36b382b34aec0814f6b3cdf89f5ef282a1d1f114d0c0b036d59690600090a350505050565b6000546001600160a01b03163314611d5f5760405163118cdaa760e01b8152336004820152602401610c49565b60606001600160a01b038216612bd75760405162461bcd60e51b815260206004820152601860248201527f496e76616c696420746f6b656e4f7574206164647265737300000000000000006044820152606401610c49565b7f00000000000000000000000000000000000000000000000000000000000000006001600160a01b0316826001600160a01b031603612c585760405162461bcd60e51b815260206004820152601a60248201527f43616e6e6f74207377617020574842415220746f2057484241520000000000006044820152606401610c49565b6001600160a01b0382166115491480612c7c57506001600160a01b03821662120f46145b15612d2e5760408051600280825260608201835290916020830190803683370190505090507f000000000000000000000000000000000000000000000000000000000000000081600081518110612cd557612cd56133f7565b60200260200101906001600160a01b031690816001600160a01b0316815250508181600181518110612d0957612d096133f7565b60200260200101906001600160a01b031690816001600160a01b031681525050919050565b6040805160038082526080820190925290602082016060803683370190505090507f000000000000000000000000000000000000000000000000000000000000000081600081518110612d8357612d836133f7565b60200260200101906001600160a01b031690816001600160a01b03168152505061154981600181518110612db957612db96133f7565b60200260200101906001600160a01b031690816001600160a01b0316815250508181600281518110612d0957612d096133f7565b6040516001600160a01b03838116602483015282166044820152600090819081906101679063248a35ef60e11b906064015b60408051601f198184030181529181526020820180516001600160e01b03166001600160e01b0319909416939093179092529051612e5d91906134b9565b6000604051808303816000865af19150503d8060008114612e9a576040519150601f19603f3d011682016040523d82523d6000602084013e612e9f565b606091505b509150915081612eb157600019612ec5565b80806020019051810190612ec591906134d5565b60030b95945050505050565b60008060006101676001600160a01b0316632e63879b60e01b8686604051602401612e1f9291906134f8565b600080546001600160a01b038381166001600160a01b0319831681178455604051919092169283917f8be0079c531659141344cd1fd0a4f28419497f9722a3daafe3b4186f6b6457e09190a35050565b600260015403612f7057604051633ee5aeb560e01b815260040160405180910390fd5b6002600155565b6001600160a01b038116811461281b57600080fd5b600060208284031215612f9e57600080fd5b8135612fa981612f77565b9392505050565b60008060008060808587031215612fc657600080fd5b8435612fd181612f77565b966020860135965060408601359560600135945092505050565b60008060408385031215612ffe57600080fd5b823561300981612f77565b946020939093013593505050565b634e487b7160e01b600052604160045260246000fd5b604051601f8201601f1916810167ffffffffffffffff8111828210171561305657613056613017565b604052919050565b600067ffffffffffffffff82111561307857613078613017565b5060051b60200190565b6000602080838503121561309557600080fd5b823567ffffffffffffffff8111156130ac57600080fd5b8301601f810185136130bd57600080fd5b80356130d06130cb8261305e565b61302d565b81815260059190911b820183019083810190878311156130ef57600080fd5b928401925b8284101561311657833561310781612f77565b825292840192908401906130f4565b979650505050505050565b60008151808452602080850194506020840160005b8381101561315b5781516001600160a01b031687529582019590820190600101613136565b509495945050505050565b60005b83811015613181578181015183820152602001613169565b50506000910152565b600081518084526131a2816020860160208601613166565b601f01601f19169290920160200192915050565b6040815260006131c96040830185613121565b82810360208401526131db818561318a565b95945050505050565b6020808252825182820181905260009190848201906040850190845b8181101561321c57835183529284019291840191600101613200565b50909695505050505050565b60006020828403121561323a57600080fd5b81358015158114612fa957600080fd5b60006020828403121561325c57600080fd5b5035919050565b821515815260406020820152600061327e604083018461318a565b949350505050565b602081526000612fa96020830184613121565b600060018060a01b038087168352608060208401526132bb608084018761318a565b818616604085015283810360608501526132d5818661318a565b98975050505050505050565b600080604083850312156132f457600080fd5b50508035926020909101359150565b634e487b7160e01b600052601160045260246000fd5b8082018082111561133d5761133d613303565b8181038181111561133d5761133d613303565b60006001820161335157613351613303565b5060010190565b82815260406020820152600061327e6040830184613121565b6000602080838503121561338457600080fd5b825167ffffffffffffffff81111561339b57600080fd5b8301601f810185136133ac57600080fd5b80516133ba6130cb8261305e565b81815260059190911b820183019083810190878311156133d957600080fd5b928401925b82841015613116578351825292840192908401906133de565b634e487b7160e01b600052603260045260246000fd5b634e487b7160e01b600052603160045260246000fd5b6040815260006134366040830185613121565b90508260208301529392505050565b60008261346257634e487b7160e01b600052601260045260246000fd5b500490565b60006020828403121561347957600080fd5b8151612fa981612f77565b84815260806020820152600061349d6080830186613121565b6001600160a01b03949094166040830152506060015292915050565b600082516134cb818460208701613166565b9190910192915050565b6000602082840312156134e757600080fd5b81518060030b8114612fa957600080fd5b6001600160a01b038316815260406020820181905260009061327e9083018461312156fe534155434520546573746e65742028302e302e3131383335353829202d20446972656374205748424152207061697220617661696c61626c654d756c74692d686f7020706174683a205748424152202d3e2055534443202d3e2054617267657420546f6b656e5553444320546573746e65742028302e302e3534343929202d20446972656374205748424152207061697220617661696c61626c6544697265637420706174683a205748424152202d3e2054617267657420546f6b656e4f7264657220616d6f756e74206578636565647320726f75746572205631206c696d697420283e313830204842415229a26469706673582212208b8407bdfff3c5f4ee7622d42f6c14e67af2097ebba2767cae99788df9b7d7c564736f6c63430008180033","opcodes":"PUSH1 0xC0 PUSH1 0x40 MSTORE PUSH1 0x1 PUSH1 0x8 DUP2 SWAP1 SSTORE PUSH3 0x989680 PUSH1 0x9 SSTORE PUSH1 0xA DUP1 SLOAD PUSH1 0xFF NOT AND SWAP1 SWAP2 OR SWAP1 SSTORE CALLVALUE DUP1 ISZERO PUSH3 0x2C JUMPI PUSH1 0x0 DUP1 REVERT JUMPDEST POP PUSH1 0x40 MLOAD PUSH3 0x3D8C CODESIZE SUB DUP1 PUSH3 0x3D8C DUP4 CODECOPY DUP2 ADD PUSH1 0x40 DUP2 SWAP1 MSTORE PUSH3 0x4F SWAP2 PUSH3 0x586 JUMP JUMPDEST CALLER DUP1 PUSH3 0x77 JUMPI PUSH1 0x40 MLOAD PUSH4 0x1E4FBDF7 PUSH1 0xE0 SHL DUP2 MSTORE PUSH1 0x0 PUSH1 0x4 DUP3 ADD MSTORE PUSH1 0x24 ADD JUMPDEST PUSH1 0x40 MLOAD DUP1 SWAP2 SUB SWAP1 REVERT JUMPDEST PUSH3 0x82 DUP2 PUSH3 0x356 JUMP JUMPDEST POP PUSH1 0x1 DUP1 SSTORE PUSH1 0x1 PUSH1 0x1 PUSH1 0xA0 SHL SUB DUP3 AND PUSH3 0xDF JUMPI PUSH1 0x40 MLOAD PUSH3 0x461BCD PUSH1 0xE5 SHL DUP2 MSTORE PUSH1 0x20 PUSH1 0x4 DUP3 ADD MSTORE PUSH1 0x1D PUSH1 0x24 DUP3 ADD MSTORE PUSH32 0x526F7574657220616464726573732063616E6E6F74206265207A65726F000000 PUSH1 0x44 DUP3 ADD MSTORE PUSH1 0x64 ADD PUSH3 0x6E JUMP JUMPDEST PUSH1 0x1 PUSH1 0x1 PUSH1 0xA0 SHL SUB DUP2 AND PUSH3 0x137 JUMPI PUSH1 0x40 MLOAD PUSH3 0x461BCD PUSH1 0xE5 SHL DUP2 MSTORE PUSH1 0x20 PUSH1 0x4 DUP3 ADD MSTORE PUSH1 0x1F PUSH1 0x24 DUP3 ADD MSTORE PUSH32 0x4261636B656E64206578656375746F722063616E6E6F74206265207A65726F00 PUSH1 0x44 DUP3 ADD MSTORE PUSH1 0x64 ADD PUSH3 0x6E JUMP JUMPDEST PUSH1 0x1 PUSH1 0x1 PUSH1 0xA0 SHL SUB DUP3 AND PUSH1 0x80 DUP2 SWAP1 MSTORE PUSH1 0x40 DUP1 MLOAD PUSH4 0x1A0FCB65 PUSH1 0xE3 SHL DUP2 MSTORE SWAP1 MLOAD PUSH4 0xD07E5B28 SWAP2 PUSH1 0x4 DUP1 DUP3 ADD SWAP3 PUSH1 0x20 SWAP3 SWAP1 SWAP2 SWAP1 DUP3 SWAP1 SUB ADD DUP2 DUP7 GAS STATICCALL ISZERO DUP1 ISZERO PUSH3 0x182 JUMPI RETURNDATASIZE PUSH1 0x0 DUP1 RETURNDATACOPY RETURNDATASIZE PUSH1 0x0 REVERT JUMPDEST POP POP POP POP PUSH1 0x40 MLOAD RETURNDATASIZE PUSH1 0x1F NOT PUSH1 0x1F DUP3 ADD AND DUP3 ADD DUP1 PUSH1 0x40 MSTORE POP DUP2 ADD SWAP1 PUSH3 0x1A8 SWAP2 SWAP1 PUSH3 0x5BE JUMP JUMPDEST PUSH1 0x1 PUSH1 0x1 PUSH1 0xA0 SHL SUB AND PUSH1 0xA0 DUP2 SWAP1 MSTORE PUSH3 0x215 JUMPI PUSH1 0x40 MLOAD PUSH3 0x461BCD PUSH1 0xE5 SHL DUP2 MSTORE PUSH1 0x20 PUSH1 0x4 DUP3 ADD MSTORE PUSH1 0x28 PUSH1 0x24 DUP3 ADD MSTORE PUSH32 0x574842415220616464726573732066726F6D20726F757465722063616E6E6F74 PUSH1 0x44 DUP3 ADD MSTORE PUSH8 0x206265207A65726F PUSH1 0xC0 SHL PUSH1 0x64 DUP3 ADD MSTORE PUSH1 0x84 ADD PUSH3 0x6E JUMP JUMPDEST PUSH1 0xA DUP1 SLOAD PUSH2 0x100 PUSH1 0x1 PUSH1 0xA8 SHL SUB NOT AND PUSH2 0x100 PUSH1 0x1 PUSH1 0x1 PUSH1 0xA0 SHL SUB DUP5 AND SWAP1 DUP2 MUL SWAP2 SWAP1 SWAP2 OR SWAP1 SWAP2 SSTORE PUSH1 0x0 DUP2 DUP2 MSTORE PUSH1 0x6 PUSH1 0x20 SWAP1 DUP2 MSTORE PUSH1 0x40 DUP3 KECCAK256 DUP1 SLOAD PUSH1 0xFF NOT SWAP1 DUP2 AND PUSH1 0x1 SWAP1 DUP2 OR SWAP1 SWAP3 SSTORE PUSH1 0x7 DUP1 SLOAD DUP1 DUP5 ADD SWAP1 SWAP2 SSTORE PUSH32 0xA66CC928B5EDB82AF9BD49922954155AB7B0942694BEA4CE44661D9A8736C688 ADD DUP1 SLOAD PUSH1 0x1 PUSH1 0x1 PUSH1 0xA0 SHL SUB NOT SWAP1 DUP2 AND SWAP1 SWAP7 OR SWAP1 SSTORE PUSH1 0x2 DUP1 SLOAD DUP1 DUP5 ADD DUP3 SSTORE PUSH32 0x405787FA12A823E0F2B7631CC41B3BA8828B3321CA811111FA75CD3AA3BB5ACE SWAP1 DUP2 ADD DUP1 SLOAD PUSH2 0x1549 SWAP1 DUP10 AND OR SWAP1 SSTORE DUP2 SLOAD DUP1 DUP6 ADD SWAP1 SWAP3 SSTORE ADD DUP1 SLOAD PUSH3 0x120F46 SWAP7 AND DUP7 OR SWAP1 SSTORE PUSH1 0x3 SWAP1 SWAP3 MSTORE PUSH32 0x63DD3E1A480A7987A350D2242E60AAF19CC95F8AD9A84FD2187EB86519AB29C7 DUP1 SLOAD DUP4 AND DUP3 OR SWAP1 SSTORE SWAP3 SWAP1 SWAP2 MSTORE PUSH32 0x55B45AFA6210A3A6A1ED8531E75FF5F6DE6BA595F5D7B431794C8634955BF709 DUP1 SLOAD SWAP1 SWAP2 AND SWAP1 SWAP2 OR SWAP1 SSTORE PUSH3 0x34E PUSH3 0x3A6 JUMP JUMPDEST POP POP PUSH3 0x6E8 JUMP JUMPDEST PUSH1 0x0 DUP1 SLOAD PUSH1 0x1 PUSH1 0x1 PUSH1 0xA0 SHL SUB DUP4 DUP2 AND PUSH1 0x1 PUSH1 0x1 PUSH1 0xA0 SHL SUB NOT DUP4 AND DUP2 OR DUP5 SSTORE PUSH1 0x40 MLOAD SWAP2 SWAP1 SWAP3 AND SWAP3 DUP4 SWAP2 PUSH32 0x8BE0079C531659141344CD1FD0A4F28419497F9722A3DAAFE3B4186F6B6457E0 SWAP2 SWAP1 LOG3 POP POP JUMP JUMPDEST PUSH1 0x40 DUP1 MLOAD PUSH1 0x2 DUP1 DUP3 MSTORE PUSH1 0x60 DUP3 ADD DUP4 MSTORE PUSH1 0x0 SWAP3 PUSH1 0x20 DUP4 ADD SWAP1 DUP1 CALLDATASIZE DUP4 CALLDATACOPY ADD SWAP1 POP POP SWAP1 POP PUSH2 0x1549 DUP2 PUSH1 0x0 DUP2 MLOAD DUP2 LT PUSH3 0x3E0 JUMPI PUSH3 0x3E0 PUSH3 0x5E3 JUMP JUMPDEST PUSH1 0x20 MUL PUSH1 0x20 ADD ADD SWAP1 PUSH1 0x1 PUSH1 0x1 PUSH1 0xA0 SHL SUB AND SWAP1 DUP2 PUSH1 0x1 PUSH1 0x1 PUSH1 0xA0 SHL SUB AND DUP2 MSTORE POP POP PUSH3 0x120F46 DUP2 PUSH1 0x1 DUP2 MLOAD DUP2 LT PUSH3 0x41A JUMPI PUSH3 0x41A PUSH3 0x5E3 JUMP JUMPDEST PUSH1 0x1 PUSH1 0x1 PUSH1 0xA0 SHL SUB SWAP1 SWAP3 AND PUSH1 0x20 SWAP3 DUP4 MUL SWAP2 SWAP1 SWAP2 ADD SWAP1 SWAP2 ADD MSTORE PUSH1 0x0 PUSH3 0x440 ADDRESS DUP4 PUSH3 0x481 JUMP JUMPDEST SWAP1 POP PUSH32 0xD238AC3AC1CFDAF20BD2C563456827D1695EC8485CD028EDA65E04F75C9052D6 DUP3 DUP3 PUSH1 0x40 MLOAD PUSH3 0x475 SWAP3 SWAP2 SWAP1 PUSH3 0x640 JUMP JUMPDEST PUSH1 0x40 MLOAD DUP1 SWAP2 SUB SWAP1 LOG1 POP POP JUMP JUMPDEST PUSH1 0x0 DUP1 PUSH1 0x0 PUSH2 0x167 PUSH1 0x1 PUSH1 0x1 PUSH1 0xA0 SHL SUB AND PUSH4 0x2E63879B PUSH1 0xE0 SHL DUP7 DUP7 PUSH1 0x40 MLOAD PUSH1 0x24 ADD PUSH3 0x4AF SWAP3 SWAP2 SWAP1 PUSH3 0x664 JUMP JUMPDEST PUSH1 0x40 DUP1 MLOAD PUSH1 0x1F NOT DUP2 DUP5 SUB ADD DUP2 MSTORE SWAP2 DUP2 MSTORE PUSH1 0x20 DUP3 ADD DUP1 MLOAD PUSH1 0x1 PUSH1 0x1 PUSH1 0xE0 SHL SUB AND PUSH1 0x1 PUSH1 0x1 PUSH1 0xE0 SHL SUB NOT SWAP1 SWAP5 AND SWAP4 SWAP1 SWAP4 OR SWAP1 SWAP3 MSTORE SWAP1 MLOAD PUSH3 0x4EF SWAP2 SWAP1 PUSH3 0x692 JUMP JUMPDEST PUSH1 0x0 PUSH1 0x40 MLOAD DUP1 DUP4 SUB DUP2 PUSH1 0x0 DUP7 GAS CALL SWAP2 POP POP RETURNDATASIZE DUP1 PUSH1 0x0 DUP2 EQ PUSH3 0x52E JUMPI PUSH1 0x40 MLOAD SWAP2 POP PUSH1 0x1F NOT PUSH1 0x3F RETURNDATASIZE ADD AND DUP3 ADD PUSH1 0x40 MSTORE RETURNDATASIZE DUP3 MSTORE RETURNDATASIZE PUSH1 0x0 PUSH1 0x20 DUP5 ADD RETURNDATACOPY PUSH3 0x533 JUMP JUMPDEST PUSH1 0x60 SWAP2 POP JUMPDEST POP SWAP2 POP SWAP2 POP DUP2 PUSH3 0x547 JUMPI PUSH1 0x0 NOT PUSH3 0x55D JUMP JUMPDEST DUP1 DUP1 PUSH1 0x20 ADD SWAP1 MLOAD DUP2 ADD SWAP1 PUSH3 0x55D SWAP2 SWAP1 PUSH3 0x6C3 JUMP JUMPDEST PUSH1 0x3 SIGNEXTEND SWAP6 SWAP5 POP POP POP POP POP JUMP JUMPDEST DUP1 MLOAD PUSH1 0x1 PUSH1 0x1 PUSH1 0xA0 SHL SUB DUP2 AND DUP2 EQ PUSH3 0x581 JUMPI PUSH1 0x0 DUP1 REVERT JUMPDEST SWAP2 SWAP1 POP JUMP JUMPDEST PUSH1 0x0 DUP1 PUSH1 0x40 DUP4 DUP6 SUB SLT ISZERO PUSH3 0x59A JUMPI PUSH1 0x0 DUP1 REVERT JUMPDEST PUSH3 0x5A5 DUP4 PUSH3 0x569 JUMP JUMPDEST SWAP2 POP PUSH3 0x5B5 PUSH1 0x20 DUP5 ADD PUSH3 0x569 JUMP JUMPDEST SWAP1 POP SWAP3 POP SWAP3 SWAP1 POP JUMP JUMPDEST PUSH1 0x0 PUSH1 0x20 DUP3 DUP5 SUB SLT ISZERO PUSH3 0x5D1 JUMPI PUSH1 0x0 DUP1 REVERT JUMPDEST PUSH3 0x5DC DUP3 PUSH3 0x569 JUMP JUMPDEST SWAP4 SWAP3 POP POP POP JUMP JUMPDEST PUSH4 0x4E487B71 PUSH1 0xE0 SHL PUSH1 0x0 MSTORE PUSH1 0x32 PUSH1 0x4 MSTORE PUSH1 0x24 PUSH1 0x0 REVERT JUMPDEST PUSH1 0x0 DUP2 MLOAD DUP1 DUP5 MSTORE PUSH1 0x20 DUP1 DUP6 ADD SWAP5 POP PUSH1 0x20 DUP5 ADD PUSH1 0x0 JUMPDEST DUP4 DUP2 LT ISZERO PUSH3 0x635 JUMPI DUP2 MLOAD PUSH1 0x1 PUSH1 0x1 PUSH1 0xA0 SHL SUB AND DUP8 MSTORE SWAP6 DUP3 ADD SWAP6 SWAP1 DUP3 ADD SWAP1 PUSH1 0x1 ADD PUSH3 0x60E JUMP JUMPDEST POP SWAP5 SWAP6 SWAP5 POP POP POP POP POP JUMP JUMPDEST PUSH1 0x40 DUP2 MSTORE PUSH1 0x0 PUSH3 0x655 PUSH1 0x40 DUP4 ADD DUP6 PUSH3 0x5F9 JUMP JUMPDEST SWAP1 POP DUP3 PUSH1 0x20 DUP4 ADD MSTORE SWAP4 SWAP3 POP POP POP JUMP JUMPDEST PUSH1 0x1 PUSH1 0x1 PUSH1 0xA0 SHL SUB DUP4 AND DUP2 MSTORE PUSH1 0x40 PUSH1 0x20 DUP3 ADD DUP2 SWAP1 MSTORE PUSH1 0x0 SWAP1 PUSH3 0x68A SWAP1 DUP4 ADD DUP5 PUSH3 0x5F9 JUMP JUMPDEST SWAP5 SWAP4 POP POP POP POP JUMP JUMPDEST PUSH1 0x0 DUP3 MLOAD PUSH1 0x0 JUMPDEST DUP2 DUP2 LT ISZERO PUSH3 0x6B5 JUMPI PUSH1 0x20 DUP2 DUP7 ADD DUP2 ADD MLOAD DUP6 DUP4 ADD MSTORE ADD PUSH3 0x699 JUMP JUMPDEST POP PUSH1 0x0 SWAP3 ADD SWAP2 DUP3 MSTORE POP SWAP2 SWAP1 POP JUMP JUMPDEST PUSH1 0x0 PUSH1 0x20 DUP3 DUP5 SUB SLT ISZERO PUSH3 0x6D6 JUMPI PUSH1 0x0 DUP1 REVERT JUMPDEST DUP2 MLOAD DUP1 PUSH1 0x3 SIGNEXTEND DUP2 EQ PUSH3 0x5DC JUMPI PUSH1 0x0 DUP1 REVERT JUMPDEST PUSH1 0x80 MLOAD PUSH1 0xA0 MLOAD PUSH2 0x363F PUSH3 0x74D PUSH1 0x0 CODECOPY PUSH1 0x0 DUP2 DUP2 PUSH2 0x4F3 ADD MSTORE DUP2 DUP2 PUSH2 0x7B1 ADD MSTORE DUP2 DUP2 PUSH2 0x2BD9 ADD MSTORE DUP2 DUP2 PUSH2 0x2CA3 ADD MSTORE PUSH2 0x2D51 ADD MSTORE PUSH1 0x0 DUP2 DUP2 PUSH2 0x2EB ADD MSTORE DUP2 DUP2 PUSH2 0x127E ADD MSTORE DUP2 DUP2 PUSH2 0x2234 ADD MSTORE DUP2 DUP2 PUSH2 0x2255 ADD MSTORE DUP2 DUP2 PUSH2 0x22D7 ADD MSTORE PUSH2 0x26A5 ADD MSTORE PUSH2 0x363F PUSH1 0x0 RETURN INVALID PUSH1 0x80 PUSH1 0x40 MSTORE PUSH1 0x4 CALLDATASIZE LT PUSH2 0x2CD JUMPI PUSH1 0x0 CALLDATALOAD PUSH1 0xE0 SHR DUP1 PUSH4 0x76319190 GT PUSH2 0x175 JUMPI DUP1 PUSH4 0xC6255626 GT PUSH2 0xDC JUMPI DUP1 PUSH4 0xEA74FF7E GT PUSH2 0x95 JUMPI DUP1 PUSH4 0xF1ECB1B0 GT PUSH2 0x6F JUMPI DUP1 PUSH4 0xF1ECB1B0 EQ PUSH2 0xB6F JUMPI DUP1 PUSH4 0xF2FDE38B EQ PUSH2 0xB8F JUMPI DUP1 PUSH4 0xF5D06486 EQ PUSH2 0xBAF JUMPI DUP1 PUSH4 0xF882AC07 EQ PUSH2 0xBCF JUMPI PUSH1 0x0 DUP1 REVERT JUMPDEST DUP1 PUSH4 0xEA74FF7E EQ PUSH2 0x9B8 JUMPI DUP1 PUSH4 0xEC7DD7BB EQ PUSH2 0x9CF JUMPI DUP1 PUSH4 0xEF132BCE EQ PUSH2 0xB23 JUMPI PUSH1 0x0 DUP1 REVERT JUMPDEST DUP1 PUSH4 0xC6255626 EQ PUSH2 0x8D6 JUMPI DUP1 PUSH4 0xCE67BE26 EQ PUSH2 0x8F6 JUMPI DUP1 PUSH4 0xD3C7C2C7 EQ PUSH2 0x90B JUMPI DUP1 PUSH4 0xD3F8F178 EQ PUSH2 0x920 JUMPI DUP1 PUSH4 0xE0D98BDD EQ PUSH2 0x945 JUMPI DUP1 PUSH4 0xE35568CB EQ PUSH2 0x993 JUMPI PUSH1 0x0 DUP1 REVERT JUMPDEST DUP1 PUSH4 0xA4F790F4 GT PUSH2 0x12E JUMPI DUP1 PUSH4 0xA4F790F4 EQ PUSH2 0x757 JUMPI DUP1 PUSH4 0xAD42F792 EQ PUSH2 0x771 JUMPI DUP1 PUSH4 0xAD5C4648 EQ PUSH2 0x79F JUMPI DUP1 PUSH4 0xAF61B24B EQ PUSH2 0x7D3 JUMPI DUP1 PUSH4 0xB15DB81F EQ PUSH2 0x7F5 JUMPI DUP1 PUSH4 0xBC9E6101 EQ PUSH2 0x8B6 JUMPI PUSH1 0x0 DUP1 REVERT JUMPDEST DUP1 PUSH4 0x76319190 EQ PUSH2 0x6AE JUMPI DUP1 PUSH4 0x856652E9 EQ PUSH2 0x6CE JUMPI DUP1 PUSH4 0x86D630D7 EQ PUSH2 0x6EE JUMPI DUP1 PUSH4 0x89A30271 EQ PUSH2 0x703 JUMPI DUP1 PUSH4 0x8DA5CB5B EQ PUSH2 0x719 JUMPI DUP1 PUSH4 0xA303C96F EQ PUSH2 0x737 JUMPI PUSH1 0x0 DUP1 REVERT JUMPDEST DUP1 PUSH4 0x30AAECE0 GT PUSH2 0x234 JUMPI DUP1 PUSH4 0x5C10FC02 GT PUSH2 0x1ED JUMPI DUP1 PUSH4 0x6F9FB98A GT PUSH2 0x1C7 JUMPI DUP1 PUSH4 0x6F9FB98A EQ PUSH2 0x62D JUMPI DUP1 PUSH4 0x6FFBE52E EQ PUSH2 0x640 JUMPI DUP1 PUSH4 0x715018A6 EQ PUSH2 0x660 JUMPI DUP1 PUSH4 0x75151B63 EQ PUSH2 0x675 JUMPI PUSH1 0x0 DUP1 REVERT JUMPDEST DUP1 PUSH4 0x5C10FC02 EQ PUSH2 0x5A2 JUMPI DUP1 PUSH4 0x63C69F08 EQ PUSH2 0x5D0 JUMPI DUP1 PUSH4 0x679D86A7 EQ PUSH2 0x5FD JUMPI PUSH1 0x0 DUP1 REVERT JUMPDEST DUP1 PUSH4 0x30AAECE0 EQ PUSH2 0x4A7 JUMPI DUP1 PUSH4 0x360DCECC EQ PUSH2 0x520 JUMPI DUP1 PUSH4 0x40BF2AA4 EQ PUSH2 0x540 JUMPI DUP1 PUSH4 0x40E9903B EQ PUSH2 0x557 JUMPI DUP1 PUSH4 0x462BDFA6 EQ PUSH2 0x56D JUMPI DUP1 PUSH4 0x476343EE EQ PUSH2 0x58D JUMPI PUSH1 0x0 DUP1 REVERT JUMPDEST DUP1 PUSH4 0x24788429 GT PUSH2 0x286 JUMPI DUP1 PUSH4 0x24788429 EQ PUSH2 0x3E2 JUMPI DUP1 PUSH4 0x25F732EE EQ PUSH2 0x402 JUMPI DUP1 PUSH4 0x273FC856 EQ PUSH2 0x422 JUMPI DUP1 PUSH4 0x2A58B330 EQ PUSH2 0x442 JUMPI DUP1 PUSH4 0x2CC75967 EQ PUSH2 0x458 JUMPI DUP1 PUSH4 0x30704EF2 EQ PUSH2 0x48E JUMPI PUSH1 0x0 DUP1 REVERT JUMPDEST DUP1 PUSH4 0xD07BE2D EQ PUSH2 0x2D9 JUMPI DUP1 PUSH4 0x1F5A0BBE EQ PUSH2 0x32A JUMPI DUP1 PUSH4 0x22EDF7B3 EQ PUSH2 0x34C JUMPI DUP1 PUSH4 0x232102F3 EQ PUSH2 0x35F JUMPI DUP1 PUSH4 0x238DFD1A EQ PUSH2 0x382 JUMPI DUP1 PUSH4 0x240028E8 EQ PUSH2 0x3A2 JUMPI PUSH1 0x0 DUP1 REVERT JUMPDEST CALLDATASIZE PUSH2 0x2D4 JUMPI STOP JUMPDEST PUSH1 0x0 DUP1 REVERT JUMPDEST CALLVALUE DUP1 ISZERO PUSH2 0x2E5 JUMPI PUSH1 0x0 DUP1 REVERT JUMPDEST POP PUSH2 0x30D PUSH32 0x0 DUP2 JUMP JUMPDEST PUSH1 0x40 MLOAD PUSH1 0x1 PUSH1 0x1 PUSH1 0xA0 SHL SUB SWAP1 SWAP2 AND DUP2 MSTORE PUSH1 0x20 ADD JUMPDEST PUSH1 0x40 MLOAD DUP1 SWAP2 SUB SWAP1 RETURN JUMPDEST CALLVALUE DUP1 ISZERO PUSH2 0x336 JUMPI PUSH1 0x0 DUP1 REVERT JUMPDEST POP PUSH2 0x34A PUSH2 0x345 CALLDATASIZE PUSH1 0x4 PUSH2 0x2F8C JUMP JUMPDEST PUSH2 0xBEF JUMP JUMPDEST STOP JUMPDEST PUSH2 0x34A PUSH2 0x35A CALLDATASIZE PUSH1 0x4 PUSH2 0x2FB0 JUMP JUMPDEST PUSH2 0xD47 JUMP JUMPDEST CALLVALUE DUP1 ISZERO PUSH2 0x36B JUMPI PUSH1 0x0 DUP1 REVERT JUMPDEST POP PUSH2 0x374 PUSH2 0x1254 JUMP JUMPDEST PUSH1 0x40 MLOAD SWAP1 DUP2 MSTORE PUSH1 0x20 ADD PUSH2 0x321 JUMP JUMPDEST CALLVALUE DUP1 ISZERO PUSH2 0x38E JUMPI PUSH1 0x0 DUP1 REVERT JUMPDEST POP PUSH2 0x374 PUSH2 0x39D CALLDATASIZE PUSH1 0x4 PUSH2 0x2FEB JUMP JUMPDEST PUSH2 0x126C JUMP JUMPDEST CALLVALUE DUP1 ISZERO PUSH2 0x3AE JUMPI PUSH1 0x0 DUP1 REVERT JUMPDEST POP PUSH2 0x3D2 PUSH2 0x3BD CALLDATASIZE PUSH1 0x4 PUSH2 0x2F8C JUMP JUMPDEST PUSH1 0x3 PUSH1 0x20 MSTORE PUSH1 0x0 SWAP1 DUP2 MSTORE PUSH1 0x40 SWAP1 KECCAK256 SLOAD PUSH1 0xFF AND DUP2 JUMP JUMPDEST PUSH1 0x40 MLOAD SWAP1 ISZERO ISZERO DUP2 MSTORE PUSH1 0x20 ADD PUSH2 0x321 JUMP JUMPDEST CALLVALUE DUP1 ISZERO PUSH2 0x3EE JUMPI PUSH1 0x0 DUP1 REVERT JUMPDEST POP PUSH2 0x34A PUSH2 0x3FD CALLDATASIZE PUSH1 0x4 PUSH2 0x2F8C JUMP JUMPDEST PUSH2 0x1343 JUMP JUMPDEST CALLVALUE DUP1 ISZERO PUSH2 0x40E JUMPI PUSH1 0x0 DUP1 REVERT JUMPDEST POP PUSH2 0x34A PUSH2 0x41D CALLDATASIZE PUSH1 0x4 PUSH2 0x2F8C JUMP JUMPDEST PUSH2 0x156A JUMP JUMPDEST CALLVALUE DUP1 ISZERO PUSH2 0x42E JUMPI PUSH1 0x0 DUP1 REVERT JUMPDEST POP PUSH2 0x34A PUSH2 0x43D CALLDATASIZE PUSH1 0x4 PUSH2 0x3082 JUMP JUMPDEST PUSH2 0x16D8 JUMP JUMPDEST CALLVALUE DUP1 ISZERO PUSH2 0x44E JUMPI PUSH1 0x0 DUP1 REVERT JUMPDEST POP PUSH2 0x374 PUSH1 0x8 SLOAD DUP2 JUMP JUMPDEST CALLVALUE DUP1 ISZERO PUSH2 0x464 JUMPI PUSH1 0x0 DUP1 REVERT JUMPDEST POP PUSH2 0x374 PUSH2 0x473 CALLDATASIZE PUSH1 0x4 PUSH2 0x2F8C JUMP JUMPDEST PUSH1 0x1 PUSH1 0x1 PUSH1 0xA0 SHL SUB AND PUSH1 0x0 SWAP1 DUP2 MSTORE PUSH1 0x5 PUSH1 0x20 MSTORE PUSH1 0x40 SWAP1 KECCAK256 SLOAD SWAP1 JUMP JUMPDEST CALLVALUE DUP1 ISZERO PUSH2 0x49A JUMPI PUSH1 0x0 DUP1 REVERT JUMPDEST POP PUSH2 0x374 PUSH5 0x430E23400 DUP2 JUMP JUMPDEST CALLVALUE DUP1 ISZERO PUSH2 0x4B3 JUMPI PUSH1 0x0 DUP1 REVERT JUMPDEST POP PUSH1 0x9 SLOAD PUSH1 0xA SLOAD PUSH1 0x8 SLOAD PUSH1 0x40 DUP1 MLOAD SWAP4 DUP5 MSTORE PUSH3 0xF4240 PUSH1 0x20 DUP6 ADD MSTORE PUSH1 0x1 PUSH1 0x1 PUSH1 0xA0 SHL SUB PUSH2 0x100 SWAP1 SWAP4 DIV DUP4 AND SWAP1 DUP5 ADD MSTORE PUSH1 0x60 DUP4 ADD MSTORE PUSH5 0x430E23400 PUSH1 0x80 DUP4 ADD MSTORE PUSH32 0x0 AND PUSH1 0xA0 DUP3 ADD MSTORE PUSH1 0xC0 ADD PUSH2 0x321 JUMP JUMPDEST CALLVALUE DUP1 ISZERO PUSH2 0x52C JUMPI PUSH1 0x0 DUP1 REVERT JUMPDEST POP PUSH2 0x34A PUSH2 0x53B CALLDATASIZE PUSH1 0x4 PUSH2 0x2F8C JUMP JUMPDEST PUSH2 0x18D2 JUMP JUMPDEST CALLVALUE DUP1 ISZERO PUSH2 0x54C JUMPI PUSH1 0x0 DUP1 REVERT JUMPDEST POP PUSH2 0x374 PUSH3 0xF4240 DUP2 JUMP JUMPDEST CALLVALUE DUP1 ISZERO PUSH2 0x563 JUMPI PUSH1 0x0 DUP1 REVERT JUMPDEST POP PUSH2 0x374 PUSH1 0x9 SLOAD DUP2 JUMP JUMPDEST CALLVALUE DUP1 ISZERO PUSH2 0x579 JUMPI PUSH1 0x0 DUP1 REVERT JUMPDEST POP PUSH2 0x3D2 PUSH2 0x588 CALLDATASIZE PUSH1 0x4 PUSH2 0x2F8C JUMP JUMPDEST PUSH2 0x1B1E JUMP JUMPDEST CALLVALUE DUP1 ISZERO PUSH2 0x599 JUMPI PUSH1 0x0 DUP1 REVERT JUMPDEST POP PUSH2 0x34A PUSH2 0x1B72 JUMP JUMPDEST CALLVALUE DUP1 ISZERO PUSH2 0x5AE JUMPI PUSH1 0x0 DUP1 REVERT JUMPDEST POP PUSH2 0x5C2 PUSH2 0x5BD CALLDATASIZE PUSH1 0x4 PUSH2 0x2F8C JUMP JUMPDEST PUSH2 0x1BF8 JUMP JUMPDEST PUSH1 0x40 MLOAD PUSH2 0x321 SWAP3 SWAP2 SWAP1 PUSH2 0x31B6 JUMP JUMPDEST CALLVALUE DUP1 ISZERO PUSH2 0x5DC JUMPI PUSH1 0x0 DUP1 REVERT JUMPDEST POP PUSH2 0x5F0 PUSH2 0x5EB CALLDATASIZE PUSH1 0x4 PUSH2 0x2F8C JUMP JUMPDEST PUSH2 0x1C92 JUMP JUMPDEST PUSH1 0x40 MLOAD PUSH2 0x321 SWAP2 SWAP1 PUSH2 0x31E4 JUMP JUMPDEST CALLVALUE DUP1 ISZERO PUSH2 0x609 JUMPI PUSH1 0x0 DUP1 REVERT JUMPDEST POP PUSH2 0x3D2 PUSH2 0x618 CALLDATASIZE PUSH1 0x4 PUSH2 0x2F8C JUMP JUMPDEST PUSH1 0x6 PUSH1 0x20 MSTORE PUSH1 0x0 SWAP1 DUP2 MSTORE PUSH1 0x40 SWAP1 KECCAK256 SLOAD PUSH1 0xFF AND DUP2 JUMP JUMPDEST CALLVALUE DUP1 ISZERO PUSH2 0x639 JUMPI PUSH1 0x0 DUP1 REVERT JUMPDEST POP SELFBALANCE PUSH2 0x374 JUMP JUMPDEST CALLVALUE DUP1 ISZERO PUSH2 0x64C JUMPI PUSH1 0x0 DUP1 REVERT JUMPDEST POP PUSH2 0x34A PUSH2 0x65B CALLDATASIZE PUSH1 0x4 PUSH2 0x3228 JUMP JUMPDEST PUSH2 0x1CFE JUMP JUMPDEST CALLVALUE DUP1 ISZERO PUSH2 0x66C JUMPI PUSH1 0x0 DUP1 REVERT JUMPDEST POP PUSH2 0x34A PUSH2 0x1D4D JUMP JUMPDEST CALLVALUE DUP1 ISZERO PUSH2 0x681 JUMPI PUSH1 0x0 DUP1 REVERT JUMPDEST POP PUSH2 0x3D2 PUSH2 0x690 CALLDATASIZE PUSH1 0x4 PUSH2 0x2F8C JUMP JUMPDEST PUSH1 0x1 PUSH1 0x1 PUSH1 0xA0 SHL SUB AND PUSH1 0x0 SWAP1 DUP2 MSTORE PUSH1 0x3 PUSH1 0x20 MSTORE PUSH1 0x40 SWAP1 KECCAK256 SLOAD PUSH1 0xFF AND SWAP1 JUMP JUMPDEST CALLVALUE DUP1 ISZERO PUSH2 0x6BA JUMPI PUSH1 0x0 DUP1 REVERT JUMPDEST POP PUSH2 0x34A PUSH2 0x6C9 CALLDATASIZE PUSH1 0x4 PUSH2 0x2F8C JUMP JUMPDEST PUSH2 0x1D61 JUMP JUMPDEST CALLVALUE DUP1 ISZERO PUSH2 0x6DA JUMPI PUSH1 0x0 DUP1 REVERT JUMPDEST POP PUSH2 0x374 PUSH2 0x6E9 CALLDATASIZE PUSH1 0x4 PUSH2 0x2FEB JUMP JUMPDEST PUSH2 0x1F1E JUMP JUMPDEST CALLVALUE DUP1 ISZERO PUSH2 0x6FA JUMPI PUSH1 0x0 DUP1 REVERT JUMPDEST POP PUSH2 0x374 PUSH2 0x1F4F JUMP JUMPDEST CALLVALUE DUP1 ISZERO PUSH2 0x70F JUMPI PUSH1 0x0 DUP1 REVERT JUMPDEST POP PUSH2 0x30D PUSH2 0x1549 DUP2 JUMP JUMPDEST CALLVALUE DUP1 ISZERO PUSH2 0x725 JUMPI PUSH1 0x0 DUP1 REVERT JUMPDEST POP PUSH1 0x0 SLOAD PUSH1 0x1 PUSH1 0x1 PUSH1 0xA0 SHL SUB AND PUSH2 0x30D JUMP JUMPDEST CALLVALUE DUP1 ISZERO PUSH2 0x743 JUMPI PUSH1 0x0 DUP1 REVERT JUMPDEST POP PUSH2 0x30D PUSH2 0x752 CALLDATASIZE PUSH1 0x4 PUSH2 0x324A JUMP JUMPDEST PUSH2 0x1F64 JUMP JUMPDEST CALLVALUE DUP1 ISZERO PUSH2 0x763 JUMPI PUSH1 0x0 DUP1 REVERT JUMPDEST POP PUSH1 0xA SLOAD PUSH2 0x3D2 SWAP1 PUSH1 0xFF AND DUP2 JUMP JUMPDEST CALLVALUE DUP1 ISZERO PUSH2 0x77D JUMPI PUSH1 0x0 DUP1 REVERT JUMPDEST POP PUSH2 0x791 PUSH2 0x78C CALLDATASIZE PUSH1 0x4 PUSH2 0x324A JUMP JUMPDEST PUSH2 0x1F8E JUMP JUMPDEST PUSH1 0x40 MLOAD PUSH2 0x321 SWAP3 SWAP2 SWAP1 PUSH2 0x3263 JUMP JUMPDEST CALLVALUE DUP1 ISZERO PUSH2 0x7AB JUMPI PUSH1 0x0 DUP1 REVERT JUMPDEST POP PUSH2 0x30D PUSH32 0x0 DUP2 JUMP JUMPDEST CALLVALUE DUP1 ISZERO PUSH2 0x7DF JUMPI PUSH1 0x0 DUP1 REVERT JUMPDEST POP PUSH2 0x7E8 PUSH2 0x211D JUMP JUMPDEST PUSH1 0x40 MLOAD PUSH2 0x321 SWAP2 SWAP1 PUSH2 0x3286 JUMP JUMPDEST CALLVALUE DUP1 ISZERO PUSH2 0x801 JUMPI PUSH1 0x0 DUP1 REVERT JUMPDEST POP PUSH2 0x867 PUSH2 0x810 CALLDATASIZE PUSH1 0x4 PUSH2 0x324A JUMP JUMPDEST PUSH1 0x4 PUSH1 0x20 DUP2 SWAP1 MSTORE PUSH1 0x0 SWAP2 DUP3 MSTORE PUSH1 0x40 SWAP1 SWAP2 KECCAK256 DUP1 SLOAD PUSH1 0x1 DUP3 ADD SLOAD PUSH1 0x2 DUP4 ADD SLOAD PUSH1 0x3 DUP5 ADD SLOAD SWAP5 DUP5 ADD SLOAD PUSH1 0x5 DUP6 ADD SLOAD PUSH1 0x6 SWAP1 SWAP6 ADD SLOAD PUSH1 0x1 PUSH1 0x1 PUSH1 0xA0 SHL SUB SWAP5 DUP6 AND SWAP7 SWAP4 SWAP6 SWAP3 SWAP5 DUP3 AND SWAP3 PUSH1 0xFF PUSH1 0x1 PUSH1 0xA0 SHL SWAP1 SWAP4 DIV DUP4 AND SWAP3 SWAP1 SWAP2 AND DUP9 JUMP JUMPDEST PUSH1 0x40 DUP1 MLOAD PUSH1 0x1 PUSH1 0x1 PUSH1 0xA0 SHL SUB SWAP10 DUP11 AND DUP2 MSTORE PUSH1 0x20 DUP2 ADD SWAP9 SWAP1 SWAP9 MSTORE DUP8 ADD SWAP6 SWAP1 SWAP6 MSTORE PUSH1 0x60 DUP7 ADD SWAP4 SWAP1 SWAP4 MSTORE SWAP5 AND PUSH1 0x80 DUP5 ADD MSTORE SWAP3 ISZERO ISZERO PUSH1 0xA0 DUP4 ADD MSTORE PUSH1 0xC0 DUP3 ADD SWAP3 SWAP1 SWAP3 MSTORE SWAP1 ISZERO ISZERO PUSH1 0xE0 DUP3 ADD MSTORE PUSH2 0x100 ADD PUSH2 0x321 JUMP JUMPDEST CALLVALUE DUP1 ISZERO PUSH2 0x8C2 JUMPI PUSH1 0x0 DUP1 REVERT JUMPDEST POP PUSH2 0x3D2 PUSH2 0x8D1 CALLDATASIZE PUSH1 0x4 PUSH2 0x324A JUMP JUMPDEST PUSH2 0x217F JUMP JUMPDEST CALLVALUE DUP1 ISZERO PUSH2 0x8E2 JUMPI PUSH1 0x0 DUP1 REVERT JUMPDEST POP PUSH2 0x30D PUSH2 0x8F1 CALLDATASIZE PUSH1 0x4 PUSH2 0x324A JUMP JUMPDEST PUSH2 0x21BA JUMP JUMPDEST CALLVALUE DUP1 ISZERO PUSH2 0x902 JUMPI PUSH1 0x0 DUP1 REVERT JUMPDEST POP PUSH1 0x2 SLOAD PUSH2 0x374 JUMP JUMPDEST CALLVALUE DUP1 ISZERO PUSH2 0x917 JUMPI PUSH1 0x0 DUP1 REVERT JUMPDEST POP PUSH2 0x7E8 PUSH2 0x21CA JUMP JUMPDEST CALLVALUE DUP1 ISZERO PUSH2 0x92C JUMPI PUSH1 0x0 DUP1 REVERT JUMPDEST POP PUSH1 0xA SLOAD PUSH2 0x30D SWAP1 PUSH2 0x100 SWAP1 DIV PUSH1 0x1 PUSH1 0x1 PUSH1 0xA0 SHL SUB AND DUP2 JUMP JUMPDEST CALLVALUE DUP1 ISZERO PUSH2 0x951 JUMPI PUSH1 0x0 DUP1 REVERT JUMPDEST POP PUSH2 0x95A PUSH2 0x222A JUMP JUMPDEST PUSH1 0x40 DUP1 MLOAD PUSH1 0x1 PUSH1 0x1 PUSH1 0xA0 SHL SUB SWAP7 DUP8 AND DUP2 MSTORE SWAP5 DUP7 AND PUSH1 0x20 DUP7 ADD MSTORE SWAP3 SWAP1 SWAP5 AND SWAP2 DUP4 ADD SWAP2 SWAP1 SWAP2 MSTORE PUSH1 0x60 DUP3 ADD MSTORE PUSH1 0x80 DUP2 ADD SWAP2 SWAP1 SWAP2 MSTORE PUSH1 0xA0 ADD PUSH2 0x321 JUMP JUMPDEST CALLVALUE DUP1 ISZERO PUSH2 0x99F JUMPI PUSH1 0x0 DUP1 REVERT JUMPDEST POP PUSH2 0x9A8 PUSH2 0x237C JUMP JUMPDEST PUSH1 0x40 MLOAD PUSH2 0x321 SWAP5 SWAP4 SWAP3 SWAP2 SWAP1 PUSH2 0x3299 JUMP JUMPDEST CALLVALUE DUP1 ISZERO PUSH2 0x9C4 JUMPI PUSH1 0x0 DUP1 REVERT JUMPDEST POP PUSH2 0x30D PUSH3 0x120F46 DUP2 JUMP JUMPDEST CALLVALUE DUP1 ISZERO PUSH2 0x9DB JUMPI PUSH1 0x0 DUP1 REVERT JUMPDEST POP PUSH2 0xAB2 PUSH2 0x9EA CALLDATASIZE PUSH1 0x4 PUSH2 0x324A JUMP JUMPDEST PUSH1 0x40 DUP1 MLOAD PUSH2 0x100 DUP2 ADD DUP3 MSTORE PUSH1 0x0 DUP1 DUP3 MSTORE PUSH1 0x20 DUP3 ADD DUP2 SWAP1 MSTORE SWAP2 DUP2 ADD DUP3 SWAP1 MSTORE PUSH1 0x60 DUP2 ADD DUP3 SWAP1 MSTORE PUSH1 0x80 DUP2 ADD DUP3 SWAP1 MSTORE PUSH1 0xA0 DUP2 ADD DUP3 SWAP1 MSTORE PUSH1 0xC0 DUP2 ADD DUP3 SWAP1 MSTORE PUSH1 0xE0 DUP2 ADD SWAP2 SWAP1 SWAP2 MSTORE POP PUSH1 0x0 SWAP1 DUP2 MSTORE PUSH1 0x4 PUSH1 0x20 DUP2 DUP2 MSTORE PUSH1 0x40 SWAP3 DUP4 SWAP1 KECCAK256 DUP4 MLOAD PUSH2 0x100 DUP2 ADD DUP6 MSTORE DUP2 SLOAD PUSH1 0x1 PUSH1 0x1 PUSH1 0xA0 SHL SUB SWAP1 DUP2 AND DUP3 MSTORE PUSH1 0x1 DUP4 ADD SLOAD SWAP4 DUP3 ADD SWAP4 SWAP1 SWAP4 MSTORE PUSH1 0x2 DUP3 ADD SLOAD SWAP5 DUP2 ADD SWAP5 SWAP1 SWAP5 MSTORE PUSH1 0x3 DUP2 ADD SLOAD PUSH1 0x60 DUP6 ADD MSTORE SWAP2 DUP3 ADD SLOAD SWAP1 DUP2 AND PUSH1 0x80 DUP5 ADD MSTORE PUSH1 0xFF PUSH1 0x1 PUSH1 0xA0 SHL SWAP1 SWAP2 DIV DUP2 AND ISZERO ISZERO PUSH1 0xA0 DUP5 ADD MSTORE PUSH1 0x5 DUP3 ADD SLOAD PUSH1 0xC0 DUP5 ADD MSTORE PUSH1 0x6 SWAP1 SWAP2 ADD SLOAD AND ISZERO ISZERO PUSH1 0xE0 DUP3 ADD MSTORE SWAP1 JUMP JUMPDEST PUSH1 0x40 MLOAD PUSH2 0x321 SWAP2 SWAP1 PUSH1 0x0 PUSH2 0x100 DUP3 ADD SWAP1 POP PUSH1 0x1 DUP1 PUSH1 0xA0 SHL SUB DUP1 DUP5 MLOAD AND DUP4 MSTORE PUSH1 0x20 DUP5 ADD MLOAD PUSH1 0x20 DUP5 ADD MSTORE PUSH1 0x40 DUP5 ADD MLOAD PUSH1 0x40 DUP5 ADD MSTORE PUSH1 0x60 DUP5 ADD MLOAD PUSH1 0x60 DUP5 ADD MSTORE DUP1 PUSH1 0x80 DUP6 ADD MLOAD AND PUSH1 0x80 DUP5 ADD MSTORE POP PUSH1 0xA0 DUP4 ADD MLOAD ISZERO ISZERO PUSH1 0xA0 DUP4 ADD MSTORE PUSH1 0xC0 DUP4 ADD MLOAD PUSH1 0xC0 DUP4 ADD MSTORE PUSH1 0xE0 DUP4 ADD MLOAD ISZERO ISZERO PUSH1 0xE0 DUP4 ADD MSTORE SWAP3 SWAP2 POP POP JUMP JUMPDEST CALLVALUE DUP1 ISZERO PUSH2 0xB2F JUMPI PUSH1 0x0 DUP1 REVERT JUMPDEST POP PUSH1 0xA SLOAD PUSH1 0x7 SLOAD PUSH1 0xFF DUP3 AND SWAP2 PUSH2 0x100 SWAP1 DIV PUSH1 0x1 PUSH1 0x1 PUSH1 0xA0 SHL SUB AND PUSH1 0x40 DUP1 MLOAD SWAP4 ISZERO ISZERO DUP5 MSTORE PUSH1 0x20 DUP5 ADD SWAP3 SWAP1 SWAP3 MSTORE PUSH1 0x1 PUSH1 0x1 PUSH1 0xA0 SHL SUB AND SWAP1 DUP3 ADD MSTORE PUSH1 0x60 ADD PUSH2 0x321 JUMP JUMPDEST CALLVALUE DUP1 ISZERO PUSH2 0xB7B JUMPI PUSH1 0x0 DUP1 REVERT JUMPDEST POP PUSH2 0x34A PUSH2 0xB8A CALLDATASIZE PUSH1 0x4 PUSH2 0x32E1 JUMP JUMPDEST PUSH2 0x23CC JUMP JUMPDEST CALLVALUE DUP1 ISZERO PUSH2 0xB9B JUMPI PUSH1 0x0 DUP1 REVERT JUMPDEST POP PUSH2 0x34A PUSH2 0xBAA CALLDATASIZE PUSH1 0x4 PUSH2 0x2F8C JUMP JUMPDEST PUSH2 0x27E0 JUMP JUMPDEST CALLVALUE DUP1 ISZERO PUSH2 0xBBB JUMPI PUSH1 0x0 DUP1 REVERT JUMPDEST POP PUSH2 0x34A PUSH2 0xBCA CALLDATASIZE PUSH1 0x4 PUSH2 0x324A JUMP JUMPDEST PUSH2 0x281E JUMP JUMPDEST CALLVALUE DUP1 ISZERO PUSH2 0xBDB JUMPI PUSH1 0x0 DUP1 REVERT JUMPDEST POP PUSH2 0x34A PUSH2 0xBEA CALLDATASIZE PUSH1 0x4 PUSH2 0x324A JUMP JUMPDEST PUSH2 0x2903 JUMP JUMPDEST PUSH2 0xBF7 PUSH2 0x2B52 JUMP JUMPDEST PUSH1 0x1 PUSH1 0x1 PUSH1 0xA0 SHL SUB DUP2 AND PUSH2 0xC52 JUMPI PUSH1 0x40 MLOAD PUSH3 0x461BCD PUSH1 0xE5 SHL DUP2 MSTORE PUSH1 0x20 PUSH1 0x4 DUP3 ADD MSTORE PUSH1 0x1F PUSH1 0x24 DUP3 ADD MSTORE PUSH32 0x4578656375746F722063616E6E6F74206265207A65726F206164647265737300 PUSH1 0x44 DUP3 ADD MSTORE PUSH1 0x64 ADD JUMPDEST PUSH1 0x40 MLOAD DUP1 SWAP2 SUB SWAP1 REVERT JUMPDEST PUSH1 0x1 PUSH1 0x1 PUSH1 0xA0 SHL SUB DUP2 AND PUSH1 0x0 SWAP1 DUP2 MSTORE PUSH1 0x6 PUSH1 0x20 MSTORE PUSH1 0x40 SWAP1 KECCAK256 SLOAD PUSH1 0xFF AND ISZERO PUSH2 0xCBB JUMPI PUSH1 0x40 MLOAD PUSH3 0x461BCD PUSH1 0xE5 SHL DUP2 MSTORE PUSH1 0x20 PUSH1 0x4 DUP3 ADD MSTORE PUSH1 0x1B PUSH1 0x24 DUP3 ADD MSTORE PUSH32 0x4578656375746F7220616C726561647920617574686F72697A65640000000000 PUSH1 0x44 DUP3 ADD MSTORE PUSH1 0x64 ADD PUSH2 0xC49 JUMP JUMPDEST PUSH1 0x1 PUSH1 0x1 PUSH1 0xA0 SHL SUB DUP2 AND PUSH1 0x0 DUP2 DUP2 MSTORE PUSH1 0x6 PUSH1 0x20 MSTORE PUSH1 0x40 DUP1 DUP3 KECCAK256 DUP1 SLOAD PUSH1 0xFF NOT AND PUSH1 0x1 SWAP1 DUP2 OR SWAP1 SWAP2 SSTORE PUSH1 0x7 DUP1 SLOAD SWAP2 DUP3 ADD DUP2 SSTORE DUP4 MSTORE PUSH32 0xA66CC928B5EDB82AF9BD49922954155AB7B0942694BEA4CE44661D9A8736C688 ADD DUP1 SLOAD PUSH1 0x1 PUSH1 0x1 PUSH1 0xA0 SHL SUB NOT AND DUP5 OR SWAP1 SSTORE MLOAD PUSH32 0xAE5B7C3B000F575C241001DC9BCB3D8778376889353B07121115574ECEFF78C5 SWAP2 SWAP1 LOG2 POP JUMP JUMPDEST PUSH1 0x9 SLOAD CALLVALUE GT PUSH2 0xDAD JUMPI PUSH1 0x40 MLOAD PUSH3 0x461BCD PUSH1 0xE5 SHL DUP2 MSTORE PUSH1 0x20 PUSH1 0x4 DUP3 ADD MSTORE PUSH1 0x2C PUSH1 0x24 DUP3 ADD MSTORE PUSH32 0x496E73756666696369656E7420484241523A206D757374206578636565642065 PUSH1 0x44 DUP3 ADD MSTORE PUSH12 0x7865637574696F6E20666565 PUSH1 0xA0 SHL PUSH1 0x64 DUP3 ADD MSTORE PUSH1 0x84 ADD PUSH2 0xC49 JUMP JUMPDEST PUSH1 0x0 DUP4 GT PUSH2 0xE0B JUMPI PUSH1 0x40 MLOAD PUSH3 0x461BCD PUSH1 0xE5 SHL DUP2 MSTORE PUSH1 0x20 PUSH1 0x4 DUP3 ADD MSTORE PUSH1 0x25 PUSH1 0x24 DUP3 ADD MSTORE PUSH32 0x4D696E696D756D20616D6F756E74206D75737420626520677265617465722074 PUSH1 0x44 DUP3 ADD MSTORE PUSH5 0x68616E203 PUSH1 0xDC SHL PUSH1 0x64 DUP3 ADD MSTORE PUSH1 0x84 ADD PUSH2 0xC49 JUMP JUMPDEST PUSH1 0x0 DUP3 GT PUSH2 0xE67 JUMPI PUSH1 0x40 MLOAD PUSH3 0x461BCD PUSH1 0xE5 SHL DUP2 MSTORE PUSH1 0x20 PUSH1 0x4 DUP3 ADD MSTORE PUSH1 0x24 DUP1 DUP3 ADD MSTORE PUSH32 0x54726967676572207072696365206D7573742062652067726561746572207468 PUSH1 0x44 DUP3 ADD MSTORE PUSH4 0x616E203 PUSH1 0xE4 SHL PUSH1 0x64 DUP3 ADD MSTORE PUSH1 0x84 ADD PUSH2 0xC49 JUMP JUMPDEST TIMESTAMP DUP2 GT PUSH2 0xEC4 JUMPI PUSH1 0x40 MLOAD PUSH3 0x461BCD PUSH1 0xE5 SHL DUP2 MSTORE PUSH1 0x20 PUSH1 0x4 DUP3 ADD MSTORE PUSH1 0x25 PUSH1 0x24 DUP3 ADD MSTORE PUSH32 0x45787069726174696F6E2074696D65206D75737420626520696E207468652066 PUSH1 0x44 DUP3 ADD MSTORE PUSH5 0x7574757265 PUSH1 0xD8 SHL PUSH1 0x64 DUP3 ADD MSTORE PUSH1 0x84 ADD PUSH2 0xC49 JUMP JUMPDEST PUSH2 0xED1 TIMESTAMP PUSH3 0x278D00 PUSH2 0x3319 JUMP JUMPDEST DUP2 GT ISZERO PUSH2 0xF2A JUMPI PUSH1 0x40 MLOAD PUSH3 0x461BCD PUSH1 0xE5 SHL DUP2 MSTORE PUSH1 0x20 PUSH1 0x4 DUP3 ADD MSTORE PUSH1 0x21 PUSH1 0x24 DUP3 ADD MSTORE PUSH32 0x45787069726174696F6E2074696D6520746F6F2066617220696E206675747572 PUSH1 0x44 DUP3 ADD MSTORE PUSH1 0x65 PUSH1 0xF8 SHL PUSH1 0x64 DUP3 ADD MSTORE PUSH1 0x84 ADD PUSH2 0xC49 JUMP JUMPDEST PUSH1 0x1 PUSH1 0x1 PUSH1 0xA0 SHL SUB DUP5 AND PUSH2 0xF80 JUMPI PUSH1 0x40 MLOAD PUSH3 0x461BCD PUSH1 0xE5 SHL DUP2 MSTORE PUSH1 0x20 PUSH1 0x4 DUP3 ADD MSTORE PUSH1 0x1C PUSH1 0x24 DUP3 ADD MSTORE PUSH32 0x496E76616C6964206F757470757420746F6B656E206164647265737300000000 PUSH1 0x44 DUP3 ADD MSTORE PUSH1 0x64 ADD PUSH2 0xC49 JUMP JUMPDEST PUSH1 0x1 PUSH1 0x1 PUSH1 0xA0 SHL SUB DUP5 AND PUSH1 0x0 SWAP1 DUP2 MSTORE PUSH1 0x3 PUSH1 0x20 MSTORE PUSH1 0x40 SWAP1 KECCAK256 SLOAD PUSH1 0xFF AND PUSH2 0xFE8 JUMPI PUSH1 0x40 MLOAD PUSH3 0x461BCD PUSH1 0xE5 SHL DUP2 MSTORE PUSH1 0x20 PUSH1 0x4 DUP3 ADD MSTORE PUSH1 0x1F PUSH1 0x24 DUP3 ADD MSTORE PUSH32 0x546F6B656E206E6F7420737570706F7274656420627920636F6E747261637400 PUSH1 0x44 DUP3 ADD MSTORE PUSH1 0x64 ADD PUSH2 0xC49 JUMP JUMPDEST PUSH1 0x0 PUSH1 0x9 SLOAD CALLVALUE PUSH2 0xFF8 SWAP2 SWAP1 PUSH2 0x332C JUMP JUMPDEST SWAP1 POP PUSH3 0xF4240 DUP2 LT ISZERO PUSH2 0x1073 JUMPI PUSH1 0x40 MLOAD PUSH3 0x461BCD PUSH1 0xE5 SHL DUP2 MSTORE PUSH1 0x20 PUSH1 0x4 DUP3 ADD MSTORE PUSH1 0x39 PUSH1 0x24 DUP3 ADD MSTORE PUSH32 0x4F7264657220616D6F756E7420746F6F20736D616C6C3A206D75737420626520 PUSH1 0x44 DUP3 ADD MSTORE PUSH32 0x6174206C65617374204D494E5F4F524445525F414D4F554E5400000000000000 PUSH1 0x64 DUP3 ADD MSTORE PUSH1 0x84 ADD PUSH2 0xC49 JUMP JUMPDEST PUSH5 0x430E23400 DUP2 GT ISZERO PUSH2 0x10EE JUMPI PUSH1 0x40 MLOAD PUSH3 0x461BCD PUSH1 0xE5 SHL DUP2 MSTORE PUSH1 0x20 PUSH1 0x4 DUP3 ADD MSTORE PUSH1 0x3C PUSH1 0x24 DUP3 ADD MSTORE PUSH32 0x4F7264657220616D6F756E7420746F6F206C617267653A206578636565647320 PUSH1 0x44 DUP3 ADD MSTORE PUSH32 0x3138302048424152206C696D697420666F7220726F7574657220563100000000 PUSH1 0x64 DUP3 ADD MSTORE PUSH1 0x84 ADD PUSH2 0xC49 JUMP JUMPDEST PUSH1 0x40 DUP1 MLOAD PUSH2 0x100 DUP2 ADD DUP3 MSTORE PUSH1 0x1 PUSH1 0x1 PUSH1 0xA0 SHL SUB DUP1 DUP9 AND DUP3 MSTORE PUSH1 0x20 DUP1 DUP4 ADD DUP6 DUP2 MSTORE DUP4 DUP6 ADD DUP10 DUP2 MSTORE PUSH1 0x60 DUP6 ADD DUP10 DUP2 MSTORE CALLER PUSH1 0x80 DUP8 ADD DUP2 DUP2 MSTORE PUSH1 0x1 PUSH1 0xA0 DUP10 ADD DUP2 DUP2 MSTORE PUSH1 0xC0 DUP11 ADD DUP14 DUP2 MSTORE PUSH1 0x0 PUSH1 0xE0 DUP13 ADD DUP2 DUP2 MSTORE PUSH1 0x8 DUP1 SLOAD DUP4 MSTORE PUSH1 0x4 DUP1 DUP14 MSTORE DUP16 DUP5 KECCAK256 SWAP15 MLOAD DUP16 SLOAD SWAP1 DUP16 AND PUSH1 0x1 PUSH1 0x1 PUSH1 0xA0 SHL SUB NOT SWAP1 SWAP2 AND OR DUP16 SSTORE SWAP11 MLOAD DUP15 DUP8 ADD SSTORE SWAP9 MLOAD PUSH1 0x2 DUP15 ADD SSTORE SWAP7 MLOAD PUSH1 0x3 DUP14 ADD SSTORE SWAP4 MLOAD SWAP8 DUP12 ADD DUP1 SLOAD SWAP3 MLOAD ISZERO ISZERO PUSH1 0x1 PUSH1 0xA0 SHL MUL PUSH1 0x1 PUSH1 0x1 PUSH1 0xA8 SHL SUB NOT SWAP1 SWAP4 AND SWAP9 SWAP1 SWAP11 AND SWAP8 SWAP1 SWAP8 OR OR SWAP1 SWAP8 SSTORE SWAP4 MLOAD PUSH1 0x5 DUP1 DUP10 ADD SWAP2 SWAP1 SWAP2 SSTORE SWAP2 MLOAD PUSH1 0x6 SWAP1 SWAP8 ADD DUP1 SLOAD SWAP8 ISZERO ISZERO PUSH1 0xFF NOT SWAP1 SWAP9 AND SWAP8 SWAP1 SWAP8 OR SWAP1 SWAP7 SSTORE DUP6 DUP4 MSTORE DUP4 MSTORE DUP6 DUP3 KECCAK256 DUP2 SLOAD DUP2 SLOAD SWAP6 DUP7 ADD DUP3 SSTORE SWAP1 DUP4 MSTORE SWAP3 SWAP1 SWAP2 KECCAK256 SWAP1 SWAP3 ADD SSTORE SLOAD SWAP2 MLOAD SWAP1 SWAP2 SWAP1 PUSH32 0x5F88D55333195757CA319AA0AC617520059267F8245F2067982A6CAAF6916B81 SWAP1 PUSH2 0x1230 SWAP1 DUP10 SWAP1 DUP7 SWAP1 DUP10 SWAP1 PUSH1 0x1 PUSH1 0x1 PUSH1 0xA0 SHL SUB SWAP4 SWAP1 SWAP4 AND DUP4 MSTORE PUSH1 0x20 DUP4 ADD SWAP2 SWAP1 SWAP2 MSTORE PUSH1 0x40 DUP3 ADD MSTORE PUSH1 0x60 ADD SWAP1 JUMP JUMPDEST PUSH1 0x40 MLOAD DUP1 SWAP2 SUB SWAP1 LOG3 PUSH1 0x8 DUP1 SLOAD SWAP1 PUSH1 0x0 PUSH2 0x1248 DUP4 PUSH2 0x333F JUMP JUMPDEST SWAP2 SWAP1 POP SSTORE POP POP POP POP POP POP JUMP JUMPDEST PUSH1 0x0 PUSH3 0xF4240 PUSH1 0x9 SLOAD PUSH2 0x1267 SWAP2 SWAP1 PUSH2 0x3319 JUMP JUMPDEST SWAP1 POP SWAP1 JUMP JUMPDEST PUSH1 0x0 DUP1 PUSH2 0x1278 DUP5 PUSH2 0x2B7F JUMP JUMPDEST SWAP1 POP PUSH1 0x0 PUSH32 0x0 PUSH1 0x1 PUSH1 0x1 PUSH1 0xA0 SHL SUB AND PUSH4 0xD06CA61F DUP6 DUP5 PUSH1 0x40 MLOAD DUP4 PUSH4 0xFFFFFFFF AND PUSH1 0xE0 SHL DUP2 MSTORE PUSH1 0x4 ADD PUSH2 0x12CA SWAP3 SWAP2 SWAP1 PUSH2 0x3358 JUMP JUMPDEST PUSH1 0x0 PUSH1 0x40 MLOAD DUP1 DUP4 SUB DUP2 DUP7 GAS STATICCALL ISZERO DUP1 ISZERO PUSH2 0x12E7 JUMPI RETURNDATASIZE PUSH1 0x0 DUP1 RETURNDATACOPY RETURNDATASIZE PUSH1 0x0 REVERT JUMPDEST POP POP POP POP PUSH1 0x40 MLOAD RETURNDATASIZE PUSH1 0x0 DUP3 RETURNDATACOPY PUSH1 0x1F RETURNDATASIZE SWAP1 DUP2 ADD PUSH1 0x1F NOT AND DUP3 ADD PUSH1 0x40 MSTORE PUSH2 0x130F SWAP2 SWAP1 DUP2 ADD SWAP1 PUSH2 0x3371 JUMP JUMPDEST SWAP1 POP DUP1 PUSH1 0x1 DUP4 MLOAD PUSH2 0x1320 SWAP2 SWAP1 PUSH2 0x332C JUMP JUMPDEST DUP2 MLOAD DUP2 LT PUSH2 0x1330 JUMPI PUSH2 0x1330 PUSH2 0x33F7 JUMP JUMPDEST PUSH1 0x20 MUL PUSH1 0x20 ADD ADD MLOAD SWAP3 POP POP POP JUMPDEST SWAP3 SWAP2 POP POP JUMP JUMPDEST PUSH2 0x134B PUSH2 0x2B52 JUMP JUMPDEST PUSH1 0x1 PUSH1 0x1 PUSH1 0xA0 SHL SUB DUP2 AND PUSH1 0x0 SWAP1 DUP2 MSTORE PUSH1 0x6 PUSH1 0x20 MSTORE PUSH1 0x40 SWAP1 KECCAK256 SLOAD PUSH1 0xFF AND PUSH2 0x13B3 JUMPI PUSH1 0x40 MLOAD PUSH3 0x461BCD PUSH1 0xE5 SHL DUP2 MSTORE PUSH1 0x20 PUSH1 0x4 DUP3 ADD MSTORE PUSH1 0x17 PUSH1 0x24 DUP3 ADD MSTORE PUSH32 0x4578656375746F72206E6F7420617574686F72697A6564000000000000000000 PUSH1 0x44 DUP3 ADD MSTORE PUSH1 0x64 ADD PUSH2 0xC49 JUMP JUMPDEST PUSH1 0xA SLOAD PUSH1 0x1 PUSH1 0x1 PUSH1 0xA0 SHL SUB PUSH2 0x100 SWAP1 SWAP2 DIV DUP2 AND SWAP1 DUP3 AND SUB PUSH2 0x1416 JUMPI PUSH1 0x40 MLOAD PUSH3 0x461BCD PUSH1 0xE5 SHL DUP2 MSTORE PUSH1 0x20 PUSH1 0x4 DUP3 ADD MSTORE PUSH1 0x1E PUSH1 0x24 DUP3 ADD MSTORE PUSH32 0x43616E6E6F742072656D6F7665206261636B656E64206578656375746F720000 PUSH1 0x44 DUP3 ADD MSTORE PUSH1 0x64 ADD PUSH2 0xC49 JUMP JUMPDEST PUSH1 0x1 PUSH1 0x1 PUSH1 0xA0 SHL SUB DUP2 AND PUSH1 0x0 SWAP1 DUP2 MSTORE PUSH1 0x6 PUSH1 0x20 MSTORE PUSH1 0x40 DUP2 KECCAK256 DUP1 SLOAD PUSH1 0xFF NOT AND SWAP1 SSTORE JUMPDEST PUSH1 0x7 SLOAD DUP2 LT ISZERO PUSH2 0x1532 JUMPI DUP2 PUSH1 0x1 PUSH1 0x1 PUSH1 0xA0 SHL SUB AND PUSH1 0x7 DUP3 DUP2 SLOAD DUP2 LT PUSH2 0x145E JUMPI PUSH2 0x145E PUSH2 0x33F7 JUMP JUMPDEST PUSH1 0x0 SWAP2 DUP3 MSTORE PUSH1 0x20 SWAP1 SWAP2 KECCAK256 ADD SLOAD PUSH1 0x1 PUSH1 0x1 PUSH1 0xA0 SHL SUB AND SUB PUSH2 0x152A JUMPI PUSH1 0x7 DUP1 SLOAD PUSH2 0x1488 SWAP1 PUSH1 0x1 SWAP1 PUSH2 0x332C JUMP JUMPDEST DUP2 SLOAD DUP2 LT PUSH2 0x1498 JUMPI PUSH2 0x1498 PUSH2 0x33F7 JUMP JUMPDEST PUSH1 0x0 SWAP2 DUP3 MSTORE PUSH1 0x20 SWAP1 SWAP2 KECCAK256 ADD SLOAD PUSH1 0x7 DUP1 SLOAD PUSH1 0x1 PUSH1 0x1 PUSH1 0xA0 SHL SUB SWAP1 SWAP3 AND SWAP2 DUP4 SWAP1 DUP2 LT PUSH2 0x14C4 JUMPI PUSH2 0x14C4 PUSH2 0x33F7 JUMP JUMPDEST SWAP1 PUSH1 0x0 MSTORE PUSH1 0x20 PUSH1 0x0 KECCAK256 ADD PUSH1 0x0 PUSH2 0x100 EXP DUP2 SLOAD DUP2 PUSH1 0x1 PUSH1 0x1 PUSH1 0xA0 SHL SUB MUL NOT AND SWAP1 DUP4 PUSH1 0x1 PUSH1 0x1 PUSH1 0xA0 SHL SUB AND MUL OR SWAP1 SSTORE POP PUSH1 0x7 DUP1 SLOAD DUP1 PUSH2 0x1503 JUMPI PUSH2 0x1503 PUSH2 0x340D JUMP JUMPDEST PUSH1 0x0 DUP3 DUP2 MSTORE PUSH1 0x20 SWAP1 KECCAK256 DUP2 ADD PUSH1 0x0 NOT SWAP1 DUP2 ADD DUP1 SLOAD PUSH1 0x1 PUSH1 0x1 PUSH1 0xA0 SHL SUB NOT AND SWAP1 SSTORE ADD SWAP1 SSTORE PUSH2 0x1532 JUMP JUMPDEST PUSH1 0x1 ADD PUSH2 0x1437 JUMP JUMPDEST POP PUSH1 0x40 MLOAD PUSH1 0x1 PUSH1 0x1 PUSH1 0xA0 SHL SUB DUP3 AND SWAP1 PUSH32 0x4A2CF608BFB427F53279EC7F0EADF48913B9346CCEFC3AF138DBDEC14EA0907D SWAP1 PUSH1 0x0 SWAP1 LOG2 POP JUMP JUMPDEST PUSH2 0x1572 PUSH2 0x2B52 JUMP JUMPDEST PUSH1 0x1 PUSH1 0x1 PUSH1 0xA0 SHL SUB DUP2 AND PUSH2 0x15C8 JUMPI PUSH1 0x40 MLOAD PUSH3 0x461BCD PUSH1 0xE5 SHL DUP2 MSTORE PUSH1 0x20 PUSH1 0x4 DUP3 ADD MSTORE PUSH1 0x1C PUSH1 0x24 DUP3 ADD MSTORE PUSH32 0x546F6B656E20616464726573732063616E6E6F74206265207A65726F00000000 PUSH1 0x44 DUP3 ADD MSTORE PUSH1 0x64 ADD PUSH2 0xC49 JUMP JUMPDEST PUSH1 0x0 PUSH2 0x15D4 ADDRESS DUP4 PUSH2 0x2DED JUMP JUMPDEST SWAP1 POP DUP2 PUSH1 0x1 PUSH1 0x1 PUSH1 0xA0 SHL SUB AND PUSH32 0xD16128DA1C91B1AD9488BC6EA60E822A8FB0573117B34C9A171BD7D567B60292 DUP3 PUSH1 0x40 MLOAD PUSH2 0x1611 SWAP2 DUP2 MSTORE PUSH1 0x20 ADD SWAP1 JUMP JUMPDEST PUSH1 0x40 MLOAD DUP1 SWAP2 SUB SWAP1 LOG2 PUSH1 0x16 DUP2 EQ DUP1 ISZERO PUSH2 0x1642 JUMPI POP PUSH1 0x1 PUSH1 0x1 PUSH1 0xA0 SHL SUB DUP3 AND PUSH1 0x0 SWAP1 DUP2 MSTORE PUSH1 0x3 PUSH1 0x20 MSTORE PUSH1 0x40 SWAP1 KECCAK256 SLOAD PUSH1 0xFF AND ISZERO JUMPDEST ISZERO PUSH2 0x16D4 JUMPI PUSH1 0x2 DUP1 SLOAD PUSH1 0x1 DUP1 DUP3 ADD SWAP1 SWAP3 SSTORE PUSH32 0x405787FA12A823E0F2B7631CC41B3BA8828B3321CA811111FA75CD3AA3BB5ACE ADD DUP1 SLOAD PUSH1 0x1 PUSH1 0x1 PUSH1 0xA0 SHL SUB NOT AND PUSH1 0x1 PUSH1 0x1 PUSH1 0xA0 SHL SUB DUP6 AND SWAP1 DUP2 OR SWAP1 SWAP2 SSTORE PUSH1 0x0 DUP2 DUP2 MSTORE PUSH1 0x3 PUSH1 0x20 MSTORE PUSH1 0x40 DUP1 DUP3 KECCAK256 DUP1 SLOAD PUSH1 0xFF NOT AND SWAP1 SWAP5 OR SWAP1 SWAP4 SSTORE SWAP2 MLOAD SWAP1 SWAP2 PUSH32 0xD1BE2E90BD3D24839D9DD94AD871068E1F9688B02FA43F2A62C9975DFA9DE2D7 SWAP2 LOG2 JUMPDEST POP POP JUMP JUMPDEST PUSH2 0x16E0 PUSH2 0x2B52 JUMP JUMPDEST PUSH1 0x0 DUP2 MLOAD GT PUSH2 0x1731 JUMPI PUSH1 0x40 MLOAD PUSH3 0x461BCD PUSH1 0xE5 SHL DUP2 MSTORE PUSH1 0x20 PUSH1 0x4 DUP3 ADD MSTORE PUSH1 0x1C PUSH1 0x24 DUP3 ADD MSTORE PUSH32 0x546F6B656E732061727261792063616E6E6F7420626520656D70747900000000 PUSH1 0x44 DUP3 ADD MSTORE PUSH1 0x64 ADD PUSH2 0xC49 JUMP JUMPDEST PUSH1 0x0 PUSH2 0x173D ADDRESS DUP4 PUSH2 0x2ED1 JUMP JUMPDEST SWAP1 POP PUSH32 0xD238AC3AC1CFDAF20BD2C563456827D1695EC8485CD028EDA65E04F75C9052D6 DUP3 DUP3 PUSH1 0x40 MLOAD PUSH2 0x1770 SWAP3 SWAP2 SWAP1 PUSH2 0x3423 JUMP JUMPDEST PUSH1 0x40 MLOAD DUP1 SWAP2 SUB SWAP1 LOG1 PUSH1 0x15 NOT DUP2 ADD PUSH2 0x16D4 JUMPI PUSH1 0x0 JUMPDEST DUP3 MLOAD DUP2 LT ISZERO PUSH2 0x18CD JUMPI PUSH1 0x3 PUSH1 0x0 DUP5 DUP4 DUP2 MLOAD DUP2 LT PUSH2 0x17A3 JUMPI PUSH2 0x17A3 PUSH2 0x33F7 JUMP JUMPDEST PUSH1 0x20 SWAP1 DUP2 MUL SWAP2 SWAP1 SWAP2 ADD DUP2 ADD MLOAD PUSH1 0x1 PUSH1 0x1 PUSH1 0xA0 SHL SUB AND DUP3 MSTORE DUP2 ADD SWAP2 SWAP1 SWAP2 MSTORE PUSH1 0x40 ADD PUSH1 0x0 KECCAK256 SLOAD PUSH1 0xFF AND PUSH2 0x18C5 JUMPI PUSH1 0x2 DUP4 DUP3 DUP2 MLOAD DUP2 LT PUSH2 0x17E2 JUMPI PUSH2 0x17E2 PUSH2 0x33F7 JUMP JUMPDEST PUSH1 0x20 SWAP1 DUP2 MUL SWAP2 SWAP1 SWAP2 ADD DUP2 ADD MLOAD DUP3 SLOAD PUSH1 0x1 DUP1 DUP3 ADD DUP6 SSTORE PUSH1 0x0 SWAP5 DUP6 MSTORE SWAP3 DUP5 KECCAK256 ADD DUP1 SLOAD PUSH1 0x1 PUSH1 0x1 PUSH1 0xA0 SHL SUB NOT AND PUSH1 0x1 PUSH1 0x1 PUSH1 0xA0 SHL SUB SWAP1 SWAP3 AND SWAP2 SWAP1 SWAP2 OR SWAP1 SSTORE DUP5 MLOAD SWAP1 SWAP2 PUSH1 0x3 SWAP2 DUP7 SWAP1 DUP6 SWAP1 DUP2 LT PUSH2 0x1836 JUMPI PUSH2 0x1836 PUSH2 0x33F7 JUMP JUMPDEST PUSH1 0x20 MUL PUSH1 0x20 ADD ADD MLOAD PUSH1 0x1 PUSH1 0x1 PUSH1 0xA0 SHL SUB AND PUSH1 0x1 PUSH1 0x1 PUSH1 0xA0 SHL SUB AND DUP2 MSTORE PUSH1 0x20 ADD SWAP1 DUP2 MSTORE PUSH1 0x20 ADD PUSH1 0x0 KECCAK256 PUSH1 0x0 PUSH2 0x100 EXP DUP2 SLOAD DUP2 PUSH1 0xFF MUL NOT AND SWAP1 DUP4 ISZERO ISZERO MUL OR SWAP1 SSTORE POP DUP3 DUP2 DUP2 MLOAD DUP2 LT PUSH2 0x1887 JUMPI PUSH2 0x1887 PUSH2 0x33F7 JUMP JUMPDEST PUSH1 0x20 MUL PUSH1 0x20 ADD ADD MLOAD PUSH1 0x1 PUSH1 0x1 PUSH1 0xA0 SHL SUB AND PUSH32 0xD1BE2E90BD3D24839D9DD94AD871068E1F9688B02FA43F2A62C9975DFA9DE2D7 PUSH1 0x40 MLOAD PUSH1 0x40 MLOAD DUP1 SWAP2 SUB SWAP1 LOG2 JUMPDEST PUSH1 0x1 ADD PUSH2 0x1784 JUMP JUMPDEST POP POP POP JUMP JUMPDEST PUSH2 0x18DA PUSH2 0x2B52 JUMP JUMPDEST PUSH1 0x1 PUSH1 0x1 PUSH1 0xA0 SHL SUB DUP2 AND PUSH2 0x1930 JUMPI PUSH1 0x40 MLOAD PUSH3 0x461BCD PUSH1 0xE5 SHL DUP2 MSTORE PUSH1 0x20 PUSH1 0x4 DUP3 ADD MSTORE PUSH1 0x1F PUSH1 0x24 DUP3 ADD MSTORE PUSH32 0x4261636B656E64206578656375746F722063616E6E6F74206265207A65726F00 PUSH1 0x44 DUP3 ADD MSTORE PUSH1 0x64 ADD PUSH2 0xC49 JUMP JUMPDEST PUSH1 0xA SLOAD PUSH2 0x100 SWAP1 DIV PUSH1 0x1 PUSH1 0x1 PUSH1 0xA0 SHL SUB AND PUSH1 0x0 SWAP1 DUP2 MSTORE PUSH1 0x6 PUSH1 0x20 MSTORE PUSH1 0x40 DUP2 KECCAK256 DUP1 SLOAD PUSH1 0xFF NOT AND SWAP1 SSTORE JUMPDEST PUSH1 0x7 SLOAD DUP2 LT ISZERO PUSH2 0x1A68 JUMPI PUSH1 0xA PUSH1 0x1 SWAP1 SLOAD SWAP1 PUSH2 0x100 EXP SWAP1 DIV PUSH1 0x1 PUSH1 0x1 PUSH1 0xA0 SHL SUB AND PUSH1 0x1 PUSH1 0x1 PUSH1 0xA0 SHL SUB AND PUSH1 0x7 DUP3 DUP2 SLOAD DUP2 LT PUSH2 0x1994 JUMPI PUSH2 0x1994 PUSH2 0x33F7 JUMP JUMPDEST PUSH1 0x0 SWAP2 DUP3 MSTORE PUSH1 0x20 SWAP1 SWAP2 KECCAK256 ADD SLOAD PUSH1 0x1 PUSH1 0x1 PUSH1 0xA0 SHL SUB AND SUB PUSH2 0x1A60 JUMPI PUSH1 0x7 DUP1 SLOAD PUSH2 0x19BE SWAP1 PUSH1 0x1 SWAP1 PUSH2 0x332C JUMP JUMPDEST DUP2 SLOAD DUP2 LT PUSH2 0x19CE JUMPI PUSH2 0x19CE PUSH2 0x33F7 JUMP JUMPDEST PUSH1 0x0 SWAP2 DUP3 MSTORE PUSH1 0x20 SWAP1 SWAP2 KECCAK256 ADD SLOAD PUSH1 0x7 DUP1 SLOAD PUSH1 0x1 PUSH1 0x1 PUSH1 0xA0 SHL SUB SWAP1 SWAP3 AND SWAP2 DUP4 SWAP1 DUP2 LT PUSH2 0x19FA JUMPI PUSH2 0x19FA PUSH2 0x33F7 JUMP JUMPDEST SWAP1 PUSH1 0x0 MSTORE PUSH1 0x20 PUSH1 0x0 KECCAK256 ADD PUSH1 0x0 PUSH2 0x100 EXP DUP2 SLOAD DUP2 PUSH1 0x1 PUSH1 0x1 PUSH1 0xA0 SHL SUB MUL NOT AND SWAP1 DUP4 PUSH1 0x1 PUSH1 0x1 PUSH1 0xA0 SHL SUB AND MUL OR SWAP1 SSTORE POP PUSH1 0x7 DUP1 SLOAD DUP1 PUSH2 0x1A39 JUMPI PUSH2 0x1A39 PUSH2 0x340D JUMP JUMPDEST PUSH1 0x0 DUP3 DUP2 MSTORE PUSH1 0x20 SWAP1 KECCAK256 DUP2 ADD PUSH1 0x0 NOT SWAP1 DUP2 ADD DUP1 SLOAD PUSH1 0x1 PUSH1 0x1 PUSH1 0xA0 SHL SUB NOT AND SWAP1 SSTORE ADD SWAP1 SSTORE PUSH2 0x1A68 JUMP JUMPDEST PUSH1 0x1 ADD PUSH2 0x1958 JUMP JUMPDEST POP PUSH1 0xA DUP1 SLOAD PUSH1 0x1 PUSH1 0x1 PUSH1 0xA0 SHL SUB DUP4 DUP2 AND PUSH2 0x100 DUP2 DUP2 MUL PUSH2 0x100 PUSH1 0x1 PUSH1 0xA8 SHL SUB NOT DUP6 AND OR SWAP1 SWAP5 SSTORE PUSH1 0x0 DUP2 DUP2 MSTORE PUSH1 0x6 PUSH1 0x20 MSTORE PUSH1 0x40 DUP1 DUP3 KECCAK256 DUP1 SLOAD PUSH1 0xFF NOT AND PUSH1 0x1 SWAP1 DUP2 OR SWAP1 SWAP2 SSTORE PUSH1 0x7 DUP1 SLOAD SWAP2 DUP3 ADD DUP2 SSTORE DUP4 MSTORE PUSH32 0xA66CC928B5EDB82AF9BD49922954155AB7B0942694BEA4CE44661D9A8736C688 ADD DUP1 SLOAD PUSH1 0x1 PUSH1 0x1 PUSH1 0xA0 SHL SUB NOT AND DUP5 OR SWAP1 SSTORE MLOAD SWAP5 SWAP1 SWAP4 DIV SWAP2 SWAP1 SWAP2 AND SWAP3 SWAP1 SWAP2 DUP4 SWAP2 PUSH32 0x55C8A61E579C1E7FF31361E5C0B80557C4F48F25FA988102CB7B1CFAE901D961 SWAP2 SWAP1 LOG3 POP POP JUMP JUMPDEST PUSH1 0x1 PUSH1 0x1 PUSH1 0xA0 SHL SUB DUP2 AND PUSH1 0x0 SWAP1 DUP2 MSTORE PUSH1 0x6 PUSH1 0x20 MSTORE PUSH1 0x40 DUP2 KECCAK256 SLOAD PUSH1 0xFF AND DUP1 PUSH2 0x1B57 JUMPI POP PUSH1 0xA SLOAD PUSH1 0x1 PUSH1 0x1 PUSH1 0xA0 SHL SUB DUP4 DUP2 AND PUSH2 0x100 SWAP1 SWAP3 DIV AND EQ JUMPDEST DUP1 PUSH2 0x133D JUMPI POP POP PUSH1 0x0 SLOAD PUSH1 0x1 PUSH1 0x1 PUSH1 0xA0 SHL SUB SWAP2 DUP3 AND SWAP2 AND EQ SWAP1 JUMP JUMPDEST PUSH2 0x1B7A PUSH2 0x2B52 JUMP JUMPDEST SELFBALANCE DUP1 PUSH2 0x1BBF JUMPI PUSH1 0x40 MLOAD PUSH3 0x461BCD PUSH1 0xE5 SHL DUP2 MSTORE PUSH1 0x20 PUSH1 0x4 DUP3 ADD MSTORE PUSH1 0x14 PUSH1 0x24 DUP3 ADD MSTORE PUSH20 0x4E6F2066756E647320746F207769746864726177 PUSH1 0x60 SHL PUSH1 0x44 DUP3 ADD MSTORE PUSH1 0x64 ADD PUSH2 0xC49 JUMP JUMPDEST PUSH1 0x0 DUP1 SLOAD PUSH1 0x40 MLOAD PUSH1 0x1 PUSH1 0x1 PUSH1 0xA0 SHL SUB SWAP1 SWAP2 AND SWAP2 DUP4 ISZERO PUSH2 0x8FC MUL SWAP2 DUP5 SWAP2 DUP2 DUP2 DUP2 DUP6 DUP9 DUP9 CALL SWAP4 POP POP POP POP ISZERO DUP1 ISZERO PUSH2 0x16D4 JUMPI RETURNDATASIZE PUSH1 0x0 DUP1 RETURNDATACOPY RETURNDATASIZE PUSH1 0x0 REVERT JUMPDEST PUSH1 0x60 DUP1 PUSH2 0x1C04 DUP4 PUSH2 0x2B7F JUMP JUMPDEST SWAP2 POP DUP2 MLOAD PUSH1 0x2 SUB PUSH2 0x1C2F JUMPI PUSH1 0x40 MLOAD DUP1 PUSH1 0x60 ADD PUSH1 0x40 MSTORE DUP1 PUSH1 0x22 DUP2 MSTORE PUSH1 0x20 ADD PUSH2 0x35B8 PUSH1 0x22 SWAP2 CODECOPY SWAP1 POP SWAP2 POP SWAP2 JUMP JUMPDEST DUP2 MLOAD PUSH1 0x3 SUB PUSH2 0x1C58 JUMPI PUSH1 0x40 MLOAD DUP1 PUSH1 0x60 ADD PUSH1 0x40 MSTORE DUP1 PUSH1 0x2D DUP2 MSTORE PUSH1 0x20 ADD PUSH2 0x3556 PUSH1 0x2D SWAP2 CODECOPY SWAP1 POP SWAP2 POP SWAP2 JUMP JUMPDEST POP PUSH1 0x40 DUP1 MLOAD DUP1 DUP3 ADD SWAP1 SWAP2 MSTORE PUSH1 0x1A DUP2 MSTORE PUSH32 0x556E6B6E6F776E207061746820636F6E66696775726174696F6E000000000000 PUSH1 0x20 DUP3 ADD MSTORE SWAP2 POP SWAP2 JUMP JUMPDEST PUSH1 0x1 PUSH1 0x1 PUSH1 0xA0 SHL SUB DUP2 AND PUSH1 0x0 SWAP1 DUP2 MSTORE PUSH1 0x5 PUSH1 0x20 SWAP1 DUP2 MSTORE PUSH1 0x40 SWAP2 DUP3 SWAP1 KECCAK256 DUP1 SLOAD DUP4 MLOAD DUP2 DUP5 MUL DUP2 ADD DUP5 ADD SWAP1 SWAP5 MSTORE DUP1 DUP5 MSTORE PUSH1 0x60 SWAP4 SWAP3 DUP4 ADD DUP3 DUP3 DUP1 ISZERO PUSH2 0x1CF2 JUMPI PUSH1 0x20 MUL DUP3 ADD SWAP2 SWAP1 PUSH1 0x0 MSTORE PUSH1 0x20 PUSH1 0x0 KECCAK256 SWAP1 JUMPDEST DUP2 SLOAD DUP2 MSTORE PUSH1 0x20 ADD SWAP1 PUSH1 0x1 ADD SWAP1 DUP1 DUP4 GT PUSH2 0x1CDE JUMPI JUMPDEST POP POP POP POP POP SWAP1 POP SWAP2 SWAP1 POP JUMP JUMPDEST PUSH2 0x1D06 PUSH2 0x2B52 JUMP JUMPDEST PUSH1 0xA DUP1 SLOAD PUSH1 0xFF NOT AND DUP3 ISZERO ISZERO SWAP1 DUP2 OR SWAP1 SWAP2 SSTORE PUSH1 0x40 MLOAD SWAP1 DUP2 MSTORE PUSH32 0x502EBA244433BCE361D14CA9EE109349073F639B866CB6A1810BCF4D9E839BA9 SWAP1 PUSH1 0x20 ADD PUSH1 0x40 MLOAD DUP1 SWAP2 SUB SWAP1 LOG1 POP JUMP JUMPDEST PUSH2 0x1D55 PUSH2 0x2B52 JUMP JUMPDEST PUSH2 0x1D5F PUSH1 0x0 PUSH2 0x2EFD JUMP JUMPDEST JUMP JUMPDEST PUSH2 0x1D69 PUSH2 0x2B52 JUMP JUMPDEST PUSH1 0x1 PUSH1 0x1 PUSH1 0xA0 SHL SUB DUP2 AND PUSH1 0x0 SWAP1 DUP2 MSTORE PUSH1 0x3 PUSH1 0x20 MSTORE PUSH1 0x40 SWAP1 KECCAK256 SLOAD PUSH1 0xFF AND PUSH2 0x1DCA JUMPI PUSH1 0x40 MLOAD PUSH3 0x461BCD PUSH1 0xE5 SHL DUP2 MSTORE PUSH1 0x20 PUSH1 0x4 DUP3 ADD MSTORE PUSH1 0x16 PUSH1 0x24 DUP3 ADD MSTORE PUSH22 0x151BDAD95B881A5CC81B9BDD081CDD5C1C1BDC9D1959 PUSH1 0x52 SHL PUSH1 0x44 DUP3 ADD MSTORE PUSH1 0x64 ADD PUSH2 0xC49 JUMP JUMPDEST PUSH1 0x1 PUSH1 0x1 PUSH1 0xA0 SHL SUB DUP2 AND PUSH1 0x0 SWAP1 DUP2 MSTORE PUSH1 0x3 PUSH1 0x20 MSTORE PUSH1 0x40 DUP2 KECCAK256 DUP1 SLOAD PUSH1 0xFF NOT AND SWAP1 SSTORE JUMPDEST PUSH1 0x2 SLOAD DUP2 LT ISZERO PUSH2 0x1EE6 JUMPI DUP2 PUSH1 0x1 PUSH1 0x1 PUSH1 0xA0 SHL SUB AND PUSH1 0x2 DUP3 DUP2 SLOAD DUP2 LT PUSH2 0x1E12 JUMPI PUSH2 0x1E12 PUSH2 0x33F7 JUMP JUMPDEST PUSH1 0x0 SWAP2 DUP3 MSTORE PUSH1 0x20 SWAP1 SWAP2 KECCAK256 ADD SLOAD PUSH1 0x1 PUSH1 0x1 PUSH1 0xA0 SHL SUB AND SUB PUSH2 0x1EDE JUMPI PUSH1 0x2 DUP1 SLOAD PUSH2 0x1E3C SWAP1 PUSH1 0x1 SWAP1 PUSH2 0x332C JUMP JUMPDEST DUP2 SLOAD DUP2 LT PUSH2 0x1E4C JUMPI PUSH2 0x1E4C PUSH2 0x33F7 JUMP JUMPDEST PUSH1 0x0 SWAP2 DUP3 MSTORE PUSH1 0x20 SWAP1 SWAP2 KECCAK256 ADD SLOAD PUSH1 0x2 DUP1 SLOAD PUSH1 0x1 PUSH1 0x1 PUSH1 0xA0 SHL SUB SWAP1 SWAP3 AND SWAP2 DUP4 SWAP1 DUP2 LT PUSH2 0x1E78 JUMPI PUSH2 0x1E78 PUSH2 0x33F7 JUMP JUMPDEST SWAP1 PUSH1 0x0 MSTORE PUSH1 0x20 PUSH1 0x0 KECCAK256 ADD PUSH1 0x0 PUSH2 0x100 EXP DUP2 SLOAD DUP2 PUSH1 0x1 PUSH1 0x1 PUSH1 0xA0 SHL SUB MUL NOT AND SWAP1 DUP4 PUSH1 0x1 PUSH1 0x1 PUSH1 0xA0 SHL SUB AND MUL OR SWAP1 SSTORE POP PUSH1 0x2 DUP1 SLOAD DUP1 PUSH2 0x1EB7 JUMPI PUSH2 0x1EB7 PUSH2 0x340D JUMP JUMPDEST PUSH1 0x0 DUP3 DUP2 MSTORE PUSH1 0x20 SWAP1 KECCAK256 DUP2 ADD PUSH1 0x0 NOT SWAP1 DUP2 ADD DUP1 SLOAD PUSH1 0x1 PUSH1 0x1 PUSH1 0xA0 SHL SUB NOT AND SWAP1 SSTORE ADD SWAP1 SSTORE PUSH2 0x1EE6 JUMP JUMPDEST PUSH1 0x1 ADD PUSH2 0x1DEB JUMP JUMPDEST POP PUSH1 0x40 MLOAD PUSH1 0x1 PUSH1 0x1 PUSH1 0xA0 SHL SUB DUP3 AND SWAP1 PUSH32 0xBEA12876694C4055C71F74308F752B9027CF3D554194000A366ABDDFC239A306 SWAP1 PUSH1 0x0 SWAP1 LOG2 POP JUMP JUMPDEST PUSH1 0x5 PUSH1 0x20 MSTORE DUP2 PUSH1 0x0 MSTORE PUSH1 0x40 PUSH1 0x0 KECCAK256 DUP2 DUP2 SLOAD DUP2 LT PUSH2 0x1F3A JUMPI PUSH1 0x0 DUP1 REVERT JUMPDEST SWAP1 PUSH1 0x0 MSTORE PUSH1 0x20 PUSH1 0x0 KECCAK256 ADD PUSH1 0x0 SWAP2 POP SWAP2 POP POP SLOAD DUP2 JUMP JUMPDEST PUSH1 0x0 PUSH2 0x1267 PUSH4 0x5F5E100 PUSH5 0x430E23400 PUSH2 0x3445 JUMP JUMPDEST PUSH1 0x7 DUP2 DUP2 SLOAD DUP2 LT PUSH2 0x1F74 JUMPI PUSH1 0x0 DUP1 REVERT JUMPDEST PUSH1 0x0 SWAP2 DUP3 MSTORE PUSH1 0x20 SWAP1 SWAP2 KECCAK256 ADD SLOAD PUSH1 0x1 PUSH1 0x1 PUSH1 0xA0 SHL SUB AND SWAP1 POP DUP2 JUMP JUMPDEST PUSH1 0x0 PUSH1 0x60 PUSH2 0x1F9B DUP4 PUSH2 0x217F JUMP JUMPDEST PUSH2 0x1FD0 JUMPI POP POP PUSH1 0x40 DUP1 MLOAD DUP1 DUP3 ADD SWAP1 SWAP2 MSTORE PUSH1 0x10 DUP2 MSTORE PUSH16 0x125B9D985B1A59081BDC99195C881251 PUSH1 0x82 SHL PUSH1 0x20 DUP3 ADD MSTORE PUSH1 0x0 SWAP3 SWAP1 SWAP2 POP JUMP JUMPDEST PUSH1 0x0 DUP4 DUP2 MSTORE PUSH1 0x4 PUSH1 0x20 DUP2 SWAP1 MSTORE PUSH1 0x40 SWAP1 SWAP2 KECCAK256 SWAP1 DUP2 ADD SLOAD PUSH1 0x1 PUSH1 0xA0 SHL SWAP1 DIV PUSH1 0xFF AND PUSH2 0x2028 JUMPI PUSH1 0x0 PUSH1 0x40 MLOAD DUP1 PUSH1 0x40 ADD PUSH1 0x40 MSTORE DUP1 PUSH1 0x10 DUP2 MSTORE PUSH1 0x20 ADD PUSH16 0x4F72646572206E6F7420616374697665 PUSH1 0x80 SHL DUP2 MSTORE POP SWAP3 POP SWAP3 POP POP SWAP2 POP SWAP2 JUMP JUMPDEST PUSH1 0x6 DUP2 ADD SLOAD PUSH1 0xFF AND ISZERO PUSH2 0x2070 JUMPI PUSH1 0x0 PUSH1 0x40 MLOAD DUP1 PUSH1 0x40 ADD PUSH1 0x40 MSTORE DUP1 PUSH1 0x16 DUP2 MSTORE PUSH1 0x20 ADD PUSH22 0x13DC99195C88185B1C9958591E48195E1958DD5D1959 PUSH1 0x52 SHL DUP2 MSTORE POP SWAP3 POP SWAP3 POP POP SWAP2 POP SWAP2 JUMP JUMPDEST DUP1 PUSH1 0x5 ADD SLOAD TIMESTAMP LT PUSH2 0x20AD JUMPI PUSH1 0x0 PUSH1 0x40 MLOAD DUP1 PUSH1 0x40 ADD PUSH1 0x40 MSTORE DUP1 PUSH1 0xD DUP2 MSTORE PUSH1 0x20 ADD PUSH13 0x13DC99195C88195E1C1A5C9959 PUSH1 0x9A SHL DUP2 MSTORE POP SWAP3 POP SWAP3 POP POP SWAP2 POP SWAP2 JUMP JUMPDEST PUSH1 0x1 DUP2 ADD SLOAD PUSH5 0x430E23400 LT ISZERO PUSH2 0x20E3 JUMPI PUSH1 0x0 PUSH1 0x40 MLOAD DUP1 PUSH1 0x60 ADD PUSH1 0x40 MSTORE DUP1 PUSH1 0x30 DUP2 MSTORE PUSH1 0x20 ADD PUSH2 0x35DA PUSH1 0x30 SWAP2 CODECOPY SWAP3 POP SWAP3 POP POP SWAP2 POP SWAP2 JUMP JUMPDEST PUSH1 0x1 PUSH1 0x40 MLOAD DUP1 PUSH1 0x40 ADD PUSH1 0x40 MSTORE DUP1 PUSH1 0x15 DUP2 MSTORE PUSH1 0x20 ADD PUSH21 0x13DC99195C8818D85B88189948195E1958DD5D1959 PUSH1 0x5A SHL DUP2 MSTORE POP SWAP3 POP SWAP3 POP POP SWAP2 POP SWAP2 JUMP JUMPDEST PUSH1 0x60 PUSH1 0x7 DUP1 SLOAD DUP1 PUSH1 0x20 MUL PUSH1 0x20 ADD PUSH1 0x40 MLOAD SWAP1 DUP2 ADD PUSH1 0x40 MSTORE DUP1 SWAP3 SWAP2 SWAP1 DUP2 DUP2 MSTORE PUSH1 0x20 ADD DUP3 DUP1 SLOAD DUP1 ISZERO PUSH2 0x2175 JUMPI PUSH1 0x20 MUL DUP3 ADD SWAP2 SWAP1 PUSH1 0x0 MSTORE PUSH1 0x20 PUSH1 0x0 KECCAK256 SWAP1 JUMPDEST DUP2 SLOAD PUSH1 0x1 PUSH1 0x1 PUSH1 0xA0 SHL SUB AND DUP2 MSTORE PUSH1 0x1 SWAP1 SWAP2 ADD SWAP1 PUSH1 0x20 ADD DUP1 DUP4 GT PUSH2 0x2157 JUMPI JUMPDEST POP POP POP POP POP SWAP1 POP SWAP1 JUMP JUMPDEST PUSH1 0x0 DUP1 DUP3 GT DUP1 ISZERO PUSH2 0x2191 JUMPI POP PUSH1 0x8 SLOAD DUP3 LT JUMPDEST DUP1 ISZERO PUSH2 0x133D JUMPI POP POP PUSH1 0x0 SWAP1 DUP2 MSTORE PUSH1 0x4 PUSH1 0x20 DUP2 SWAP1 MSTORE PUSH1 0x40 SWAP1 SWAP2 KECCAK256 ADD SLOAD PUSH1 0x1 PUSH1 0x1 PUSH1 0xA0 SHL SUB AND ISZERO ISZERO SWAP1 JUMP JUMPDEST PUSH1 0x2 DUP2 DUP2 SLOAD DUP2 LT PUSH2 0x1F74 JUMPI PUSH1 0x0 DUP1 REVERT JUMPDEST PUSH1 0x60 PUSH1 0x2 DUP1 SLOAD DUP1 PUSH1 0x20 MUL PUSH1 0x20 ADD PUSH1 0x40 MLOAD SWAP1 DUP2 ADD PUSH1 0x40 MSTORE DUP1 SWAP3 SWAP2 SWAP1 DUP2 DUP2 MSTORE PUSH1 0x20 ADD DUP3 DUP1 SLOAD DUP1 ISZERO PUSH2 0x2175 JUMPI PUSH1 0x20 MUL DUP3 ADD SWAP2 SWAP1 PUSH1 0x0 MSTORE PUSH1 0x20 PUSH1 0x0 KECCAK256 SWAP1 DUP2 SLOAD PUSH1 0x1 PUSH1 0x1 PUSH1 0xA0 SHL SUB AND DUP2 MSTORE PUSH1 0x1 SWAP1 SWAP2 ADD SWAP1 PUSH1 0x20 ADD DUP1 DUP4 GT PUSH2 0x2157 JUMPI POP POP POP POP POP SWAP1 POP SWAP1 JUMP JUMPDEST PUSH1 0x0 DUP1 PUSH1 0x0 DUP1 PUSH1 0x0 PUSH32 0x0 PUSH32 0x0 PUSH1 0x1 PUSH1 0x1 PUSH1 0xA0 SHL SUB AND PUSH4 0xD07E5B28 PUSH1 0x40 MLOAD DUP2 PUSH4 0xFFFFFFFF AND PUSH1 0xE0 SHL DUP2 MSTORE PUSH1 0x4 ADD PUSH1 0x20 PUSH1 0x40 MLOAD DUP1 DUP4 SUB DUP2 DUP7 GAS STATICCALL ISZERO DUP1 ISZERO PUSH2 0x22B1 JUMPI RETURNDATASIZE PUSH1 0x0 DUP1 RETURNDATACOPY RETURNDATASIZE PUSH1 0x0 REVERT JUMPDEST POP POP POP POP PUSH1 0x40 MLOAD RETURNDATASIZE PUSH1 0x1F NOT PUSH1 0x1F DUP3 ADD AND DUP3 ADD DUP1 PUSH1 0x40 MSTORE POP DUP2 ADD SWAP1 PUSH2 0x22D5 SWAP2 SWAP1 PUSH2 0x3467 JUMP JUMPDEST PUSH32 0x0 PUSH1 0x1 PUSH1 0x1 PUSH1 0xA0 SHL SUB AND PUSH4 0xC45A0155 PUSH1 0x40 MLOAD DUP2 PUSH4 0xFFFFFFFF AND PUSH1 0xE0 SHL DUP2 MSTORE PUSH1 0x4 ADD PUSH1 0x20 PUSH1 0x40 MLOAD DUP1 DUP4 SUB DUP2 DUP7 GAS STATICCALL ISZERO DUP1 ISZERO PUSH2 0x2333 JUMPI RETURNDATASIZE PUSH1 0x0 DUP1 RETURNDATACOPY RETURNDATASIZE PUSH1 0x0 REVERT JUMPDEST POP POP POP POP PUSH1 0x40 MLOAD RETURNDATASIZE PUSH1 0x1F NOT PUSH1 0x1F DUP3 ADD AND DUP3 ADD DUP1 PUSH1 0x40 MSTORE POP DUP2 ADD SWAP1 PUSH2 0x2357 SWAP2 SWAP1 PUSH2 0x3467 JUMP JUMPDEST PUSH5 0x430E23400 PUSH2 0x236B PUSH4 0x5F5E100 DUP3 PUSH2 0x3445 JUMP JUMPDEST SWAP5 POP SWAP5 POP SWAP5 POP SWAP5 POP SWAP5 POP SWAP1 SWAP2 SWAP3 SWAP4 SWAP5 JUMP JUMPDEST PUSH1 0x0 PUSH1 0x60 PUSH1 0x0 PUSH1 0x60 PUSH2 0x1549 PUSH3 0x120F46 PUSH1 0x40 MLOAD DUP1 PUSH1 0x60 ADD PUSH1 0x40 MSTORE DUP1 PUSH1 0x35 DUP2 MSTORE PUSH1 0x20 ADD PUSH2 0x3583 PUSH1 0x35 SWAP2 CODECOPY SWAP1 PUSH1 0x40 MLOAD DUP1 PUSH1 0x60 ADD PUSH1 0x40 MSTORE DUP1 PUSH1 0x39 DUP2 MSTORE PUSH1 0x20 ADD PUSH2 0x351D PUSH1 0x39 SWAP2 CODECOPY SWAP4 POP SWAP4 POP SWAP4 POP SWAP4 POP SWAP1 SWAP2 SWAP3 SWAP4 JUMP JUMPDEST PUSH2 0x23D4 PUSH2 0x2F4D JUMP JUMPDEST PUSH1 0xA SLOAD PUSH1 0xFF AND DUP1 PUSH2 0x23F4 JUMPI POP CALLER PUSH1 0x0 SWAP1 DUP2 MSTORE PUSH1 0x6 PUSH1 0x20 MSTORE PUSH1 0x40 SWAP1 KECCAK256 SLOAD PUSH1 0xFF AND JUMPDEST DUP1 PUSH2 0x240E JUMPI POP PUSH1 0xA SLOAD PUSH2 0x100 SWAP1 DIV PUSH1 0x1 PUSH1 0x1 PUSH1 0xA0 SHL SUB AND CALLER EQ JUMPDEST DUP1 PUSH2 0x2423 JUMPI POP PUSH1 0x0 SLOAD PUSH1 0x1 PUSH1 0x1 PUSH1 0xA0 SHL SUB AND CALLER EQ JUMPDEST PUSH2 0x246F JUMPI PUSH1 0x40 MLOAD PUSH3 0x461BCD PUSH1 0xE5 SHL DUP2 MSTORE PUSH1 0x20 PUSH1 0x4 DUP3 ADD DUP2 SWAP1 MSTORE PUSH1 0x24 DUP3 ADD MSTORE PUSH32 0x4E6F7420617574686F72697A656420746F2065786563757465206F7264657273 PUSH1 0x44 DUP3 ADD MSTORE PUSH1 0x64 ADD PUSH2 0xC49 JUMP JUMPDEST PUSH1 0x0 DUP3 DUP2 MSTORE PUSH1 0x4 PUSH1 0x20 DUP2 SWAP1 MSTORE PUSH1 0x40 SWAP1 SWAP2 KECCAK256 ADD SLOAD DUP3 SWAP1 PUSH1 0x1 PUSH1 0xA0 SHL SWAP1 DIV PUSH1 0xFF AND PUSH2 0x24CD JUMPI PUSH1 0x40 MLOAD PUSH3 0x461BCD PUSH1 0xE5 SHL DUP2 MSTORE PUSH1 0x20 PUSH1 0x4 DUP3 ADD MSTORE PUSH1 0x10 PUSH1 0x24 DUP3 ADD MSTORE PUSH16 0x4F72646572206E6F7420616374697665 PUSH1 0x80 SHL PUSH1 0x44 DUP3 ADD MSTORE PUSH1 0x64 ADD PUSH2 0xC49 JUMP JUMPDEST PUSH1 0x0 DUP2 DUP2 MSTORE PUSH1 0x4 PUSH1 0x20 MSTORE PUSH1 0x40 SWAP1 KECCAK256 PUSH1 0x6 ADD SLOAD PUSH1 0xFF AND ISZERO PUSH2 0x2528 JUMPI PUSH1 0x40 MLOAD PUSH3 0x461BCD PUSH1 0xE5 SHL DUP2 MSTORE PUSH1 0x20 PUSH1 0x4 DUP3 ADD MSTORE PUSH1 0x16 PUSH1 0x24 DUP3 ADD MSTORE PUSH22 0x13DC99195C88185B1C9958591E48195E1958DD5D1959 PUSH1 0x52 SHL PUSH1 0x44 DUP3 ADD MSTORE PUSH1 0x64 ADD PUSH2 0xC49 JUMP JUMPDEST PUSH1 0x0 DUP2 DUP2 MSTORE PUSH1 0x4 PUSH1 0x20 MSTORE PUSH1 0x40 SWAP1 KECCAK256 PUSH1 0x5 ADD SLOAD TIMESTAMP LT PUSH2 0x2578 JUMPI PUSH1 0x40 MLOAD PUSH3 0x461BCD PUSH1 0xE5 SHL DUP2 MSTORE PUSH1 0x20 PUSH1 0x4 DUP3 ADD MSTORE PUSH1 0xD PUSH1 0x24 DUP3 ADD MSTORE PUSH13 0x13DC99195C88195E1C1A5C9959 PUSH1 0x9A SHL PUSH1 0x44 DUP3 ADD MSTORE PUSH1 0x64 ADD PUSH2 0xC49 JUMP JUMPDEST PUSH1 0x0 DUP4 DUP2 MSTORE PUSH1 0x4 PUSH1 0x20 MSTORE PUSH1 0x40 SWAP1 KECCAK256 PUSH1 0x3 DUP2 ADD SLOAD DUP4 LT ISZERO PUSH2 0x25DA JUMPI PUSH1 0x40 MLOAD PUSH3 0x461BCD PUSH1 0xE5 SHL DUP2 MSTORE PUSH1 0x20 PUSH1 0x4 DUP3 ADD MSTORE PUSH1 0x1C PUSH1 0x24 DUP3 ADD MSTORE PUSH32 0x507269636520646F6573206E6F74207265616368207472696767657200000000 PUSH1 0x44 DUP3 ADD MSTORE PUSH1 0x64 ADD PUSH2 0xC49 JUMP JUMPDEST PUSH1 0x1 DUP2 ADD SLOAD PUSH5 0x430E23400 LT ISZERO PUSH2 0x2633 JUMPI PUSH1 0x40 MLOAD PUSH3 0x461BCD PUSH1 0xE5 SHL DUP2 MSTORE PUSH1 0x20 PUSH1 0x4 DUP3 ADD MSTORE PUSH1 0x1D PUSH1 0x24 DUP3 ADD MSTORE PUSH32 0x4F72646572206578636565647320726F75746572205631206C696D6974000000 PUSH1 0x44 DUP3 ADD MSTORE PUSH1 0x64 ADD PUSH2 0xC49 JUMP JUMPDEST PUSH1 0x4 DUP2 ADD DUP1 SLOAD PUSH1 0xFF PUSH1 0xA0 SHL NOT AND SWAP1 SSTORE PUSH1 0x6 DUP2 ADD DUP1 SLOAD PUSH1 0xFF NOT AND PUSH1 0x1 OR SWAP1 SSTORE DUP1 SLOAD PUSH1 0x0 SWAP1 PUSH2 0x2668 SWAP1 PUSH1 0x1 PUSH1 0x1 PUSH1 0xA0 SHL SUB AND PUSH2 0x2B7F JUMP JUMPDEST SWAP1 POP PUSH1 0x0 PUSH2 0x2678 TIMESTAMP PUSH2 0x258 PUSH2 0x3319 JUMP JUMPDEST PUSH1 0x1 DUP5 ADD SLOAD PUSH1 0x2 DUP6 ADD SLOAD PUSH1 0x4 DUP1 DUP8 ADD SLOAD PUSH1 0x40 MLOAD PUSH4 0x7FF36AB5 PUSH1 0xE0 SHL DUP2 MSTORE SWAP5 SWAP6 POP PUSH1 0x0 SWAP5 PUSH1 0x1 PUSH1 0x1 PUSH1 0xA0 SHL SUB PUSH32 0x0 DUP2 AND SWAP6 PUSH4 0x7FF36AB5 SWAP6 SWAP1 SWAP5 PUSH2 0x26E4 SWAP5 SWAP2 SWAP4 DUP12 SWAP4 SWAP3 SWAP1 SWAP3 AND SWAP2 DUP11 SWAP2 ADD PUSH2 0x3484 JUMP JUMPDEST PUSH1 0x0 PUSH1 0x40 MLOAD DUP1 DUP4 SUB DUP2 DUP6 DUP9 GAS CALL ISZERO DUP1 ISZERO PUSH2 0x2702 JUMPI RETURNDATASIZE PUSH1 0x0 DUP1 RETURNDATACOPY RETURNDATASIZE PUSH1 0x0 REVERT JUMPDEST POP POP POP POP POP PUSH1 0x40 MLOAD RETURNDATASIZE PUSH1 0x0 DUP3 RETURNDATACOPY PUSH1 0x1F RETURNDATASIZE SWAP1 DUP2 ADD PUSH1 0x1F NOT AND DUP3 ADD PUSH1 0x40 MSTORE PUSH2 0x272B SWAP2 SWAP1 DUP2 ADD SWAP1 PUSH2 0x3371 JUMP JUMPDEST SWAP1 POP PUSH1 0x0 DUP2 PUSH1 0x1 DUP6 MLOAD PUSH2 0x273E SWAP2 SWAP1 PUSH2 0x332C JUMP JUMPDEST DUP2 MLOAD DUP2 LT PUSH2 0x274E JUMPI PUSH2 0x274E PUSH2 0x33F7 JUMP JUMPDEST PUSH1 0x20 MUL PUSH1 0x20 ADD ADD MLOAD SWAP1 POP CALLER PUSH1 0x1 PUSH1 0x1 PUSH1 0xA0 SHL SUB AND PUSH2 0x8FC PUSH1 0x9 SLOAD SWAP1 DUP2 ISZERO MUL SWAP1 PUSH1 0x40 MLOAD PUSH1 0x0 PUSH1 0x40 MLOAD DUP1 DUP4 SUB DUP2 DUP6 DUP9 DUP9 CALL SWAP4 POP POP POP POP ISZERO DUP1 ISZERO PUSH2 0x2793 JUMPI RETURNDATASIZE PUSH1 0x0 DUP1 RETURNDATACOPY RETURNDATASIZE PUSH1 0x0 REVERT JUMPDEST POP PUSH1 0x40 DUP1 MLOAD DUP3 DUP2 MSTORE PUSH1 0x20 DUP2 ADD DUP10 SWAP1 MSTORE CALLER SWAP2 DUP11 SWAP2 PUSH32 0x79E7FEF5CD17CE2C61FE594632F498FBF07D1BF082540B02861AD2A3AFB745E0 SWAP2 ADD PUSH1 0x40 MLOAD DUP1 SWAP2 SUB SWAP1 LOG3 POP POP POP POP POP POP PUSH2 0x16D4 PUSH1 0x1 DUP1 SSTORE JUMP JUMPDEST PUSH2 0x27E8 PUSH2 0x2B52 JUMP JUMPDEST PUSH1 0x1 PUSH1 0x1 PUSH1 0xA0 SHL SUB DUP2 AND PUSH2 0x2812 JUMPI PUSH1 0x40 MLOAD PUSH4 0x1E4FBDF7 PUSH1 0xE0 SHL DUP2 MSTORE PUSH1 0x0 PUSH1 0x4 DUP3 ADD MSTORE PUSH1 0x24 ADD PUSH2 0xC49 JUMP JUMPDEST PUSH2 0x281B DUP2 PUSH2 0x2EFD JUMP JUMPDEST POP JUMP JUMPDEST PUSH2 0x2826 PUSH2 0x2B52 JUMP JUMPDEST PUSH1 0x0 DUP2 GT PUSH2 0x2876 JUMPI PUSH1 0x40 MLOAD PUSH3 0x461BCD PUSH1 0xE5 SHL DUP2 MSTORE PUSH1 0x20 PUSH1 0x4 DUP3 ADD MSTORE PUSH1 0x1A PUSH1 0x24 DUP3 ADD MSTORE PUSH32 0x466565206D7573742062652067726561746572207468616E2030000000000000 PUSH1 0x44 DUP3 ADD MSTORE PUSH1 0x64 ADD PUSH2 0xC49 JUMP JUMPDEST PUSH4 0x3B9ACA00 DUP2 GT ISZERO PUSH2 0x28CA JUMPI PUSH1 0x40 MLOAD PUSH3 0x461BCD PUSH1 0xE5 SHL DUP2 MSTORE PUSH1 0x20 PUSH1 0x4 DUP3 ADD MSTORE PUSH1 0x19 PUSH1 0x24 DUP3 ADD MSTORE PUSH32 0x46656520746F6F20686967683A206D6178203130204842415200000000000000 PUSH1 0x44 DUP3 ADD MSTORE PUSH1 0x64 ADD PUSH2 0xC49 JUMP JUMPDEST PUSH1 0x9 DUP1 SLOAD SWAP1 DUP3 SWAP1 SSTORE PUSH1 0x40 MLOAD DUP3 SWAP1 DUP3 SWAP1 PUSH32 0xFCEC6BF21775ECED516E9CD1ECEDE9227F19DB60FA30E1DEA6D3891EDEF12ED8 SWAP1 PUSH1 0x0 SWAP1 LOG3 POP POP JUMP JUMPDEST PUSH1 0x0 DUP2 DUP2 MSTORE PUSH1 0x4 PUSH1 0x20 DUP2 SWAP1 MSTORE PUSH1 0x40 SWAP1 SWAP2 KECCAK256 ADD SLOAD DUP2 SWAP1 PUSH1 0x1 PUSH1 0x1 PUSH1 0xA0 SHL SUB AND CALLER EQ PUSH2 0x297B JUMPI PUSH1 0x40 MLOAD PUSH3 0x461BCD PUSH1 0xE5 SHL DUP2 MSTORE PUSH1 0x20 PUSH1 0x4 DUP3 ADD MSTORE PUSH1 0x23 PUSH1 0x24 DUP3 ADD MSTORE PUSH32 0x596F7520617265206E6F7420746865206F776E6572206F662074686973206F72 PUSH1 0x44 DUP3 ADD MSTORE PUSH3 0x3232B9 PUSH1 0xE9 SHL PUSH1 0x64 DUP3 ADD MSTORE PUSH1 0x84 ADD PUSH2 0xC49 JUMP JUMPDEST PUSH1 0x0 DUP3 DUP2 MSTORE PUSH1 0x4 PUSH1 0x20 DUP2 SWAP1 MSTORE PUSH1 0x40 SWAP1 SWAP2 KECCAK256 ADD SLOAD DUP3 SWAP1 PUSH1 0x1 PUSH1 0xA0 SHL SWAP1 DIV PUSH1 0xFF AND PUSH2 0x29D9 JUMPI PUSH1 0x40 MLOAD PUSH3 0x461BCD PUSH1 0xE5 SHL DUP2 MSTORE PUSH1 0x20 PUSH1 0x4 DUP3 ADD MSTORE PUSH1 0x10 PUSH1 0x24 DUP3 ADD MSTORE PUSH16 0x4F72646572206E6F7420616374697665 PUSH1 0x80 SHL PUSH1 0x44 DUP3 ADD MSTORE PUSH1 0x64 ADD PUSH2 0xC49 JUMP JUMPDEST PUSH1 0x0 DUP2 DUP2 MSTORE PUSH1 0x4 PUSH1 0x20 MSTORE PUSH1 0x40 SWAP1 KECCAK256 PUSH1 0x6 ADD SLOAD PUSH1 0xFF AND ISZERO PUSH2 0x2A34 JUMPI PUSH1 0x40 MLOAD PUSH3 0x461BCD PUSH1 0xE5 SHL DUP2 MSTORE PUSH1 0x20 PUSH1 0x4 DUP3 ADD MSTORE PUSH1 0x16 PUSH1 0x24 DUP3 ADD MSTORE PUSH22 0x13DC99195C88185B1C9958591E48195E1958DD5D1959 PUSH1 0x52 SHL PUSH1 0x44 DUP3 ADD MSTORE PUSH1 0x64 ADD PUSH2 0xC49 JUMP JUMPDEST PUSH1 0x0 DUP2 DUP2 MSTORE PUSH1 0x4 PUSH1 0x20 MSTORE PUSH1 0x40 SWAP1 KECCAK256 PUSH1 0x5 ADD SLOAD TIMESTAMP LT PUSH2 0x2A84 JUMPI PUSH1 0x40 MLOAD PUSH3 0x461BCD PUSH1 0xE5 SHL DUP2 MSTORE PUSH1 0x20 PUSH1 0x4 DUP3 ADD MSTORE PUSH1 0xD PUSH1 0x24 DUP3 ADD MSTORE PUSH13 0x13DC99195C88195E1C1A5C9959 PUSH1 0x9A SHL PUSH1 0x44 DUP3 ADD MSTORE PUSH1 0x64 ADD PUSH2 0xC49 JUMP JUMPDEST PUSH1 0x0 DUP4 DUP2 MSTORE PUSH1 0x4 PUSH1 0x20 DUP2 SWAP1 MSTORE PUSH1 0x40 DUP1 DUP4 KECCAK256 SWAP2 DUP3 ADD DUP1 SLOAD PUSH1 0xFF PUSH1 0xA0 SHL NOT DUP2 AND SWAP1 SWAP2 SSTORE PUSH1 0x1 DUP4 ADD SLOAD SWAP2 MLOAD SWAP3 SWAP4 PUSH1 0x1 PUSH1 0x1 PUSH1 0xA0 SHL SUB SWAP1 SWAP2 AND SWAP3 DUP3 ISZERO PUSH2 0x8FC MUL SWAP3 SWAP2 DUP2 DUP2 DUP2 DUP6 DUP9 DUP9 CALL SWAP4 POP POP POP POP ISZERO DUP1 ISZERO PUSH2 0x2ADF JUMPI RETURNDATASIZE PUSH1 0x0 DUP1 RETURNDATACOPY RETURNDATASIZE PUSH1 0x0 REVERT JUMPDEST POP PUSH1 0x4 DUP2 ADD SLOAD PUSH1 0x9 SLOAD PUSH1 0x40 MLOAD PUSH1 0x1 PUSH1 0x1 PUSH1 0xA0 SHL SUB SWAP1 SWAP3 AND SWAP2 DUP2 ISZERO PUSH2 0x8FC MUL SWAP2 SWAP1 PUSH1 0x0 DUP2 DUP2 DUP2 DUP6 DUP9 DUP9 CALL SWAP4 POP POP POP POP ISZERO DUP1 ISZERO PUSH2 0x2B1E JUMPI RETURNDATASIZE PUSH1 0x0 DUP1 RETURNDATACOPY RETURNDATASIZE PUSH1 0x0 REVERT JUMPDEST POP PUSH1 0x40 MLOAD CALLER SWAP1 DUP6 SWAP1 PUSH32 0xC0362DA6F2FF36B382B34AEC0814F6B3CDF89F5EF282A1D1F114D0C0B036D596 SWAP1 PUSH1 0x0 SWAP1 LOG3 POP POP POP POP JUMP JUMPDEST PUSH1 0x0 SLOAD PUSH1 0x1 PUSH1 0x1 PUSH1 0xA0 SHL SUB AND CALLER EQ PUSH2 0x1D5F JUMPI PUSH1 0x40 MLOAD PUSH4 0x118CDAA7 PUSH1 0xE0 SHL DUP2 MSTORE CALLER PUSH1 0x4 DUP3 ADD MSTORE PUSH1 0x24 ADD PUSH2 0xC49 JUMP JUMPDEST PUSH1 0x60 PUSH1 0x1 PUSH1 0x1 PUSH1 0xA0 SHL SUB DUP3 AND PUSH2 0x2BD7 JUMPI PUSH1 0x40 MLOAD PUSH3 0x461BCD PUSH1 0xE5 SHL DUP2 MSTORE PUSH1 0x20 PUSH1 0x4 DUP3 ADD MSTORE PUSH1 0x18 PUSH1 0x24 DUP3 ADD MSTORE PUSH32 0x496E76616C696420746F6B656E4F757420616464726573730000000000000000 PUSH1 0x44 DUP3 ADD MSTORE PUSH1 0x64 ADD PUSH2 0xC49 JUMP JUMPDEST PUSH32 0x0 PUSH1 0x1 PUSH1 0x1 PUSH1 0xA0 SHL SUB AND DUP3 PUSH1 0x1 PUSH1 0x1 PUSH1 0xA0 SHL SUB AND SUB PUSH2 0x2C58 JUMPI PUSH1 0x40 MLOAD PUSH3 0x461BCD PUSH1 0xE5 SHL DUP2 MSTORE PUSH1 0x20 PUSH1 0x4 DUP3 ADD MSTORE PUSH1 0x1A PUSH1 0x24 DUP3 ADD MSTORE PUSH32 0x43616E6E6F74207377617020574842415220746F205748424152000000000000 PUSH1 0x44 DUP3 ADD MSTORE PUSH1 0x64 ADD PUSH2 0xC49 JUMP JUMPDEST PUSH1 0x1 PUSH1 0x1 PUSH1 0xA0 SHL SUB DUP3 AND PUSH2 0x1549 EQ DUP1 PUSH2 0x2C7C JUMPI POP PUSH1 0x1 PUSH1 0x1 PUSH1 0xA0 SHL SUB DUP3 AND PUSH3 0x120F46 EQ JUMPDEST ISZERO PUSH2 0x2D2E JUMPI PUSH1 0x40 DUP1 MLOAD PUSH1 0x2 DUP1 DUP3 MSTORE PUSH1 0x60 DUP3 ADD DUP4 MSTORE SWAP1 SWAP2 PUSH1 0x20 DUP4 ADD SWAP1 DUP1 CALLDATASIZE DUP4 CALLDATACOPY ADD SWAP1 POP POP SWAP1 POP PUSH32 0x0 DUP2 PUSH1 0x0 DUP2 MLOAD DUP2 LT PUSH2 0x2CD5 JUMPI PUSH2 0x2CD5 PUSH2 0x33F7 JUMP JUMPDEST PUSH1 0x20 MUL PUSH1 0x20 ADD ADD SWAP1 PUSH1 0x1 PUSH1 0x1 PUSH1 0xA0 SHL SUB AND SWAP1 DUP2 PUSH1 0x1 PUSH1 0x1 PUSH1 0xA0 SHL SUB AND DUP2 MSTORE POP POP DUP2 DUP2 PUSH1 0x1 DUP2 MLOAD DUP2 LT PUSH2 0x2D09 JUMPI PUSH2 0x2D09 PUSH2 0x33F7 JUMP JUMPDEST PUSH1 0x20 MUL PUSH1 0x20 ADD ADD SWAP1 PUSH1 0x1 PUSH1 0x1 PUSH1 0xA0 SHL SUB AND SWAP1 DUP2 PUSH1 0x1 PUSH1 0x1 PUSH1 0xA0 SHL SUB AND DUP2 MSTORE POP POP SWAP2 SWAP1 POP JUMP JUMPDEST PUSH1 0x40 DUP1 MLOAD PUSH1 0x3 DUP1 DUP3 MSTORE PUSH1 0x80 DUP3 ADD SWAP1 SWAP3 MSTORE SWAP1 PUSH1 0x20 DUP3 ADD PUSH1 0x60 DUP1 CALLDATASIZE DUP4 CALLDATACOPY ADD SWAP1 POP POP SWAP1 POP PUSH32 0x0 DUP2 PUSH1 0x0 DUP2 MLOAD DUP2 LT PUSH2 0x2D83 JUMPI PUSH2 0x2D83 PUSH2 0x33F7 JUMP JUMPDEST PUSH1 0x20 MUL PUSH1 0x20 ADD ADD SWAP1 PUSH1 0x1 PUSH1 0x1 PUSH1 0xA0 SHL SUB AND SWAP1 DUP2 PUSH1 0x1 PUSH1 0x1 PUSH1 0xA0 SHL SUB AND DUP2 MSTORE POP POP PUSH2 0x1549 DUP2 PUSH1 0x1 DUP2 MLOAD DUP2 LT PUSH2 0x2DB9 JUMPI PUSH2 0x2DB9 PUSH2 0x33F7 JUMP JUMPDEST PUSH1 0x20 MUL PUSH1 0x20 ADD ADD SWAP1 PUSH1 0x1 PUSH1 0x1 PUSH1 0xA0 SHL SUB AND SWAP1 DUP2 PUSH1 0x1 PUSH1 0x1 PUSH1 0xA0 SHL SUB AND DUP2 MSTORE POP POP DUP2 DUP2 PUSH1 0x2 DUP2 MLOAD DUP2 LT PUSH2 0x2D09 JUMPI PUSH2 0x2D09 PUSH2 0x33F7 JUMP JUMPDEST PUSH1 0x40 MLOAD PUSH1 0x1 PUSH1 0x1 PUSH1 0xA0 SHL SUB DUP4 DUP2 AND PUSH1 0x24 DUP4 ADD MSTORE DUP3 AND PUSH1 0x44 DUP3 ADD MSTORE PUSH1 0x0 SWAP1 DUP2 SWAP1 DUP2 SWAP1 PUSH2 0x167 SWAP1 PUSH4 0x248A35EF PUSH1 0xE1 SHL SWAP1 PUSH1 0x64 ADD JUMPDEST PUSH1 0x40 DUP1 MLOAD PUSH1 0x1F NOT DUP2 DUP5 SUB ADD DUP2 MSTORE SWAP2 DUP2 MSTORE PUSH1 0x20 DUP3 ADD DUP1 MLOAD PUSH1 0x1 PUSH1 0x1 PUSH1 0xE0 SHL SUB AND PUSH1 0x1 PUSH1 0x1 PUSH1 0xE0 SHL SUB NOT SWAP1 SWAP5 AND SWAP4 SWAP1 SWAP4 OR SWAP1 SWAP3 MSTORE SWAP1 MLOAD PUSH2 0x2E5D SWAP2 SWAP1 PUSH2 0x34B9 JUMP JUMPDEST PUSH1 0x0 PUSH1 0x40 MLOAD DUP1 DUP4 SUB DUP2 PUSH1 0x0 DUP7 GAS CALL SWAP2 POP POP RETURNDATASIZE DUP1 PUSH1 0x0 DUP2 EQ PUSH2 0x2E9A JUMPI PUSH1 0x40 MLOAD SWAP2 POP PUSH1 0x1F NOT PUSH1 0x3F RETURNDATASIZE ADD AND DUP3 ADD PUSH1 0x40 MSTORE RETURNDATASIZE DUP3 MSTORE RETURNDATASIZE PUSH1 0x0 PUSH1 0x20 DUP5 ADD RETURNDATACOPY PUSH2 0x2E9F JUMP JUMPDEST PUSH1 0x60 SWAP2 POP JUMPDEST POP SWAP2 POP SWAP2 POP DUP2 PUSH2 0x2EB1 JUMPI PUSH1 0x0 NOT PUSH2 0x2EC5 JUMP JUMPDEST DUP1 DUP1 PUSH1 0x20 ADD SWAP1 MLOAD DUP2 ADD SWAP1 PUSH2 0x2EC5 SWAP2 SWAP1 PUSH2 0x34D5 JUMP JUMPDEST PUSH1 0x3 SIGNEXTEND SWAP6 SWAP5 POP POP POP POP POP JUMP JUMPDEST PUSH1 0x0 DUP1 PUSH1 0x0 PUSH2 0x167 PUSH1 0x1 PUSH1 0x1 PUSH1 0xA0 SHL SUB AND PUSH4 0x2E63879B PUSH1 0xE0 SHL DUP7 DUP7 PUSH1 0x40 MLOAD PUSH1 0x24 ADD PUSH2 0x2E1F SWAP3 SWAP2 SWAP1 PUSH2 0x34F8 JUMP JUMPDEST PUSH1 0x0 DUP1 SLOAD PUSH1 0x1 PUSH1 0x1 PUSH1 0xA0 SHL SUB DUP4 DUP2 AND PUSH1 0x1 PUSH1 0x1 PUSH1 0xA0 SHL SUB NOT DUP4 AND DUP2 OR DUP5 SSTORE PUSH1 0x40 MLOAD SWAP2 SWAP1 SWAP3 AND SWAP3 DUP4 SWAP2 PUSH32 0x8BE0079C531659141344CD1FD0A4F28419497F9722A3DAAFE3B4186F6B6457E0 SWAP2 SWAP1 LOG3 POP POP JUMP JUMPDEST PUSH1 0x2 PUSH1 0x1 SLOAD SUB PUSH2 0x2F70 JUMPI PUSH1 0x40 MLOAD PUSH4 0x3EE5AEB5 PUSH1 0xE0 SHL DUP2 MSTORE PUSH1 0x4 ADD PUSH1 0x40 MLOAD DUP1 SWAP2 SUB SWAP1 REVERT JUMPDEST PUSH1 0x2 PUSH1 0x1 SSTORE JUMP JUMPDEST PUSH1 0x1 PUSH1 0x1 PUSH1 0xA0 SHL SUB DUP2 AND DUP2 EQ PUSH2 0x281B JUMPI PUSH1 0x0 DUP1 REVERT JUMPDEST PUSH1 0x0 PUSH1 0x20 DUP3 DUP5 SUB SLT ISZERO PUSH2 0x2F9E JUMPI PUSH1 0x0 DUP1 REVERT JUMPDEST DUP2 CALLDATALOAD PUSH2 0x2FA9 DUP2 PUSH2 0x2F77 JUMP JUMPDEST SWAP4 SWAP3 POP POP POP JUMP JUMPDEST PUSH1 0x0 DUP1 PUSH1 0x0 DUP1 PUSH1 0x80 DUP6 DUP8 SUB SLT ISZERO PUSH2 0x2FC6 JUMPI PUSH1 0x0 DUP1 REVERT JUMPDEST DUP5 CALLDATALOAD PUSH2 0x2FD1 DUP2 PUSH2 0x2F77 JUMP JUMPDEST SWAP7 PUSH1 0x20 DUP7 ADD CALLDATALOAD SWAP7 POP PUSH1 0x40 DUP7 ADD CALLDATALOAD SWAP6 PUSH1 0x60 ADD CALLDATALOAD SWAP5 POP SWAP3 POP POP POP JUMP JUMPDEST PUSH1 0x0 DUP1 PUSH1 0x40 DUP4 DUP6 SUB SLT ISZERO PUSH2 0x2FFE JUMPI PUSH1 0x0 DUP1 REVERT JUMPDEST DUP3 CALLDATALOAD PUSH2 0x3009 DUP2 PUSH2 0x2F77 JUMP JUMPDEST SWAP5 PUSH1 0x20 SWAP4 SWAP1 SWAP4 ADD CALLDATALOAD SWAP4 POP POP POP JUMP JUMPDEST PUSH4 0x4E487B71 PUSH1 0xE0 SHL PUSH1 0x0 MSTORE PUSH1 0x41 PUSH1 0x4 MSTORE PUSH1 0x24 PUSH1 0x0 REVERT JUMPDEST PUSH1 0x40 MLOAD PUSH1 0x1F DUP3 ADD PUSH1 0x1F NOT AND DUP2 ADD PUSH8 0xFFFFFFFFFFFFFFFF DUP2 GT DUP3 DUP3 LT OR ISZERO PUSH2 0x3056 JUMPI PUSH2 0x3056 PUSH2 0x3017 JUMP JUMPDEST PUSH1 0x40 MSTORE SWAP2 SWAP1 POP JUMP JUMPDEST PUSH1 0x0 PUSH8 0xFFFFFFFFFFFFFFFF DUP3 GT ISZERO PUSH2 0x3078 JUMPI PUSH2 0x3078 PUSH2 0x3017 JUMP JUMPDEST POP PUSH1 0x5 SHL PUSH1 0x20 ADD SWAP1 JUMP JUMPDEST PUSH1 0x0 PUSH1 0x20 DUP1 DUP4 DUP6 SUB SLT ISZERO PUSH2 0x3095 JUMPI PUSH1 0x0 DUP1 REVERT JUMPDEST DUP3 CALLDATALOAD PUSH8 0xFFFFFFFFFFFFFFFF DUP2 GT ISZERO PUSH2 0x30AC JUMPI PUSH1 0x0 DUP1 REVERT JUMPDEST DUP4 ADD PUSH1 0x1F DUP2 ADD DUP6 SGT PUSH2 0x30BD JUMPI PUSH1 0x0 DUP1 REVERT JUMPDEST DUP1 CALLDATALOAD PUSH2 0x30D0 PUSH2 0x30CB DUP3 PUSH2 0x305E JUMP JUMPDEST PUSH2 0x302D JUMP JUMPDEST DUP2 DUP2 MSTORE PUSH1 0x5 SWAP2 SWAP1 SWAP2 SHL DUP3 ADD DUP4 ADD SWAP1 DUP4 DUP2 ADD SWAP1 DUP8 DUP4 GT ISZERO PUSH2 0x30EF JUMPI PUSH1 0x0 DUP1 REVERT JUMPDEST SWAP3 DUP5 ADD SWAP3 JUMPDEST DUP3 DUP5 LT ISZERO PUSH2 0x3116 JUMPI DUP4 CALLDATALOAD PUSH2 0x3107 DUP2 PUSH2 0x2F77 JUMP JUMPDEST DUP3 MSTORE SWAP3 DUP5 ADD SWAP3 SWAP1 DUP5 ADD SWAP1 PUSH2 0x30F4 JUMP JUMPDEST SWAP8 SWAP7 POP POP POP POP POP POP POP JUMP JUMPDEST PUSH1 0x0 DUP2 MLOAD DUP1 DUP5 MSTORE PUSH1 0x20 DUP1 DUP6 ADD SWAP5 POP PUSH1 0x20 DUP5 ADD PUSH1 0x0 JUMPDEST DUP4 DUP2 LT ISZERO PUSH2 0x315B JUMPI DUP2 MLOAD PUSH1 0x1 PUSH1 0x1 PUSH1 0xA0 SHL SUB AND DUP8 MSTORE SWAP6 DUP3 ADD SWAP6 SWAP1 DUP3 ADD SWAP1 PUSH1 0x1 ADD PUSH2 0x3136 JUMP JUMPDEST POP SWAP5 SWAP6 SWAP5 POP POP POP POP POP JUMP JUMPDEST PUSH1 0x0 JUMPDEST DUP4 DUP2 LT ISZERO PUSH2 0x3181 JUMPI DUP2 DUP2 ADD MLOAD DUP4 DUP3 ADD MSTORE PUSH1 0x20 ADD PUSH2 0x3169 JUMP JUMPDEST POP POP PUSH1 0x0 SWAP2 ADD MSTORE JUMP JUMPDEST PUSH1 0x0 DUP2 MLOAD DUP1 DUP5 MSTORE PUSH2 0x31A2 DUP2 PUSH1 0x20 DUP7 ADD PUSH1 0x20 DUP7 ADD PUSH2 0x3166 JUMP JUMPDEST PUSH1 0x1F ADD PUSH1 0x1F NOT AND SWAP3 SWAP1 SWAP3 ADD PUSH1 0x20 ADD SWAP3 SWAP2 POP POP JUMP JUMPDEST PUSH1 0x40 DUP2 MSTORE PUSH1 0x0 PUSH2 0x31C9 PUSH1 0x40 DUP4 ADD DUP6 PUSH2 0x3121 JUMP JUMPDEST DUP3 DUP2 SUB PUSH1 0x20 DUP5 ADD MSTORE PUSH2 0x31DB DUP2 DUP6 PUSH2 0x318A JUMP JUMPDEST SWAP6 SWAP5 POP POP POP POP POP JUMP JUMPDEST PUSH1 0x20 DUP1 DUP3 MSTORE DUP3 MLOAD DUP3 DUP3 ADD DUP2 SWAP1 MSTORE PUSH1 0x0 SWAP2 SWAP1 DUP5 DUP3 ADD SWAP1 PUSH1 0x40 DUP6 ADD SWAP1 DUP5 JUMPDEST DUP2 DUP2 LT ISZERO PUSH2 0x321C JUMPI DUP4 MLOAD DUP4 MSTORE SWAP3 DUP5 ADD SWAP3 SWAP2 DUP5 ADD SWAP2 PUSH1 0x1 ADD PUSH2 0x3200 JUMP JUMPDEST POP SWAP1 SWAP7 SWAP6 POP POP POP POP POP POP JUMP JUMPDEST PUSH1 0x0 PUSH1 0x20 DUP3 DUP5 SUB SLT ISZERO PUSH2 0x323A JUMPI PUSH1 0x0 DUP1 REVERT JUMPDEST DUP2 CALLDATALOAD DUP1 ISZERO ISZERO DUP2 EQ PUSH2 0x2FA9 JUMPI PUSH1 0x0 DUP1 REVERT JUMPDEST PUSH1 0x0 PUSH1 0x20 DUP3 DUP5 SUB SLT ISZERO PUSH2 0x325C JUMPI PUSH1 0x0 DUP1 REVERT JUMPDEST POP CALLDATALOAD SWAP2 SWAP1 POP JUMP JUMPDEST DUP3 ISZERO ISZERO DUP2 MSTORE PUSH1 0x40 PUSH1 0x20 DUP3 ADD MSTORE PUSH1 0x0 PUSH2 0x327E PUSH1 0x40 DUP4 ADD DUP5 PUSH2 0x318A JUMP JUMPDEST SWAP5 SWAP4 POP POP POP POP JUMP JUMPDEST PUSH1 0x20 DUP2 MSTORE PUSH1 0x0 PUSH2 0x2FA9 PUSH1 0x20 DUP4 ADD DUP5 PUSH2 0x3121 JUMP JUMPDEST PUSH1 0x0 PUSH1 0x1 DUP1 PUSH1 0xA0 SHL SUB DUP1 DUP8 AND DUP4 MSTORE PUSH1 0x80 PUSH1 0x20 DUP5 ADD MSTORE PUSH2 0x32BB PUSH1 0x80 DUP5 ADD DUP8 PUSH2 0x318A JUMP JUMPDEST DUP2 DUP7 AND PUSH1 0x40 DUP6 ADD MSTORE DUP4 DUP2 SUB PUSH1 0x60 DUP6 ADD MSTORE PUSH2 0x32D5 DUP2 DUP7 PUSH2 0x318A JUMP JUMPDEST SWAP9 SWAP8 POP POP POP POP POP POP POP POP JUMP JUMPDEST PUSH1 0x0 DUP1 PUSH1 0x40 DUP4 DUP6 SUB SLT ISZERO PUSH2 0x32F4 JUMPI PUSH1 0x0 DUP1 REVERT JUMPDEST POP POP DUP1 CALLDATALOAD SWAP3 PUSH1 0x20 SWAP1 SWAP2 ADD CALLDATALOAD SWAP2 POP JUMP JUMPDEST PUSH4 0x4E487B71 PUSH1 0xE0 SHL PUSH1 0x0 MSTORE PUSH1 0x11 PUSH1 0x4 MSTORE PUSH1 0x24 PUSH1 0x0 REVERT JUMPDEST DUP1 DUP3 ADD DUP1 DUP3 GT ISZERO PUSH2 0x133D JUMPI PUSH2 0x133D PUSH2 0x3303 JUMP JUMPDEST DUP2 DUP2 SUB DUP2 DUP2 GT ISZERO PUSH2 0x133D JUMPI PUSH2 0x133D PUSH2 0x3303 JUMP JUMPDEST PUSH1 0x0 PUSH1 0x1 DUP3 ADD PUSH2 0x3351 JUMPI PUSH2 0x3351 PUSH2 0x3303 JUMP JUMPDEST POP PUSH1 0x1 ADD SWAP1 JUMP JUMPDEST DUP3 DUP2 MSTORE PUSH1 0x40 PUSH1 0x20 DUP3 ADD MSTORE PUSH1 0x0 PUSH2 0x327E PUSH1 0x40 DUP4 ADD DUP5 PUSH2 0x3121 JUMP JUMPDEST PUSH1 0x0 PUSH1 0x20 DUP1 DUP4 DUP6 SUB SLT ISZERO PUSH2 0x3384 JUMPI PUSH1 0x0 DUP1 REVERT JUMPDEST DUP3 MLOAD PUSH8 0xFFFFFFFFFFFFFFFF DUP2 GT ISZERO PUSH2 0x339B JUMPI PUSH1 0x0 DUP1 REVERT JUMPDEST DUP4 ADD PUSH1 0x1F DUP2 ADD DUP6 SGT PUSH2 0x33AC JUMPI PUSH1 0x0 DUP1 REVERT JUMPDEST DUP1 MLOAD PUSH2 0x33BA PUSH2 0x30CB DUP3 PUSH2 0x305E JUMP JUMPDEST DUP2 DUP2 MSTORE PUSH1 0x5 SWAP2 SWAP1 SWAP2 SHL DUP3 ADD DUP4 ADD SWAP1 DUP4 DUP2 ADD SWAP1 DUP8 DUP4 GT ISZERO PUSH2 0x33D9 JUMPI PUSH1 0x0 DUP1 REVERT JUMPDEST SWAP3 DUP5 ADD SWAP3 JUMPDEST DUP3 DUP5 LT ISZERO PUSH2 0x3116 JUMPI DUP4 MLOAD DUP3 MSTORE SWAP3 DUP5 ADD SWAP3 SWAP1 DUP5 ADD SWAP1 PUSH2 0x33DE JUMP JUMPDEST PUSH4 0x4E487B71 PUSH1 0xE0 SHL PUSH1 0x0 MSTORE PUSH1 0x32 PUSH1 0x4 MSTORE PUSH1 0x24 PUSH1 0x0 REVERT JUMPDEST PUSH4 0x4E487B71 PUSH1 0xE0 SHL PUSH1 0x0 MSTORE PUSH1 0x31 PUSH1 0x4 MSTORE PUSH1 0x24 PUSH1 0x0 REVERT JUMPDEST PUSH1 0x40 DUP2 MSTORE PUSH1 0x0 PUSH2 0x3436 PUSH1 0x40 DUP4 ADD DUP6 PUSH2 0x3121 JUMP JUMPDEST SWAP1 POP DUP3 PUSH1 0x20 DUP4 ADD MSTORE SWAP4 SWAP3 POP POP POP JUMP JUMPDEST PUSH1 0x0 DUP3 PUSH2 0x3462 JUMPI PUSH4 0x4E487B71 PUSH1 0xE0 SHL PUSH1 0x0 MSTORE PUSH1 0x12 PUSH1 0x4 MSTORE PUSH1 0x24 PUSH1 0x0 REVERT JUMPDEST POP DIV SWAP1 JUMP JUMPDEST PUSH1 0x0 PUSH1 0x20 DUP3 DUP5 SUB SLT ISZERO PUSH2 0x3479 JUMPI PUSH1 0x0 DUP1 REVERT JUMPDEST DUP2 MLOAD PUSH2 0x2FA9 DUP2 PUSH2 0x2F77 JUMP JUMPDEST DUP5 DUP2 MSTORE PUSH1 0x80 PUSH1 0x20 DUP3 ADD MSTORE PUSH1 0x0 PUSH2 0x349D PUSH1 0x80 DUP4 ADD DUP7 PUSH2 0x3121 JUMP JUMPDEST PUSH1 0x1 PUSH1 0x1 PUSH1 0xA0 SHL SUB SWAP5 SWAP1 SWAP5 AND PUSH1 0x40 DUP4 ADD MSTORE POP PUSH1 0x60 ADD MSTORE SWAP3 SWAP2 POP POP JUMP JUMPDEST PUSH1 0x0 DUP3 MLOAD PUSH2 0x34CB DUP2 DUP5 PUSH1 0x20 DUP8 ADD PUSH2 0x3166 JUMP JUMPDEST SWAP2 SWAP1 SWAP2 ADD SWAP3 SWAP2 POP POP JUMP JUMPDEST PUSH1 0x0 PUSH1 0x20 DUP3 DUP5 SUB SLT ISZERO PUSH2 0x34E7 JUMPI PUSH1 0x0 DUP1 REVERT JUMPDEST DUP2 MLOAD DUP1 PUSH1 0x3 SIGNEXTEND DUP2 EQ PUSH2 0x2FA9 JUMPI PUSH1 0x0 DUP1 REVERT JUMPDEST PUSH1 0x1 PUSH1 0x1 PUSH1 0xA0 SHL SUB DUP4 AND DUP2 MSTORE PUSH1 0x40 PUSH1 0x20 DUP3 ADD DUP2 SWAP1 MSTORE PUSH1 0x0 SWAP1 PUSH2 0x327E SWAP1 DUP4 ADD DUP5 PUSH2 0x3121 JUMP INVALID MSTORE8 COINBASE SSTORE NUMBER GASLIMIT KECCAK256 SLOAD PUSH6 0x73746E657420 0x28 ADDRESS 0x2E ADDRESS 0x2E BALANCE BALANCE CODESIZE CALLER CALLDATALOAD CALLDATALOAD CODESIZE 0x29 KECCAK256 0x2D KECCAK256 PREVRANDAO PUSH10 0x72656374205748424152 KECCAK256 PUSH17 0x61697220617661696C61626C654D756C74 PUSH10 0x2D686F7020706174683A KECCAK256 JUMPI BASEFEE TIMESTAMP COINBASE MSTORE KECCAK256 0x2D RETURNDATACOPY KECCAK256 SSTORE MSTORE8 PREVRANDAO NUMBER KECCAK256 0x2D RETURNDATACOPY KECCAK256 SLOAD PUSH2 0x7267 PUSH6 0x7420546F6B65 PUSH15 0x5553444320546573746E6574202830 0x2E ADDRESS 0x2E CALLDATALOAD CALLVALUE CALLVALUE CODECOPY 0x29 KECCAK256 0x2D KECCAK256 PREVRANDAO PUSH10 0x72656374205748424152 KECCAK256 PUSH17 0x61697220617661696C61626C6544697265 PUSH4 0x74207061 PUSH21 0x683A205748424152202D3E2054617267657420546F PUSH12 0x656E4F7264657220616D6F75 PUSH15 0x74206578636565647320726F757465 PUSH19 0x205631206C696D697420283E31383020484241 MSTORE 0x29 LOG2 PUSH5 0x6970667358 0x22 SLT KECCAK256 DUP12 DUP5 SMOD 0xBD SELFDESTRUCT RETURN 0xC5 DELEGATECALL 0xEE PUSH23 0x22D42F6C14E67AF2097EBBA2767CAE99788DF9B7D7C564 PUSH20 0x6F6C634300081800330000000000000000000000 "},"methodIdentifiers":{"MIN_ORDER_AMOUNT()":"40bf2aa4","ROUTER_THRESHOLD()":"30704ef2","SAUCE()":"ea74ff7e","USDC()":"89a30271","WETH()":"ad5c4648","addExecutor(address)":"1f5a0bbe","associateTokenToContract(address)":"25f732ee","associateTokensToContract(address[])":"273fc856","authorizedExecutors(address)":"679d86a7","backendExecutor()":"d3f8f178","canExecuteOrder(uint256)":"ad42f792","cancelSwapOrder(uint256)":"f882ac07","createSwapOrder(address,uint256,uint256,uint256)":"22edf7b3","executeSwapOrder(uint256,uint256)":"f1ecb1b0","executionFee()":"40e9903b","executorList(uint256)":"a303c96f","getAuthorizedExecutors()":"af61b24b","getAvailableTokens()":"e35568cb","getContractBalance()":"6f9fb98a","getContractConfig()":"30aaece0","getEstimatedAmountOut(address,uint256)":"238dfd1a","getExecutionConfig()":"ef132bce","getMinimumHbarForOrder()":"232102f3","getOptimalPathPreview(address)":"5c10fc02","getOrderDetails(uint256)":"ec7dd7bb","getRouterInfo()":"e0d98bdd","getRouterThresholdHBAR()":"86d630d7","getSupportedTokenCount()":"ce67be26","getSupportedTokens()":"d3c7c2c7","getUserOrderCount(address)":"2cc75967","getUserOrders(address)":"63c69f08","isAuthorizedExecutor(address)":"462bdfa6","isSupportedToken(address)":"240028e8","isTokenSupported(address)":"75151b63","isValidOrder(uint256)":"bc9e6101","nextOrderId()":"2a58b330","owner()":"8da5cb5b","publicExecutionEnabled()":"a4f790f4","removeExecutor(address)":"24788429","removeSupportedToken(address)":"76319190","renounceOwnership()":"715018a6","saucerSwapRouter()":"0d07be2d","supportedTokens(uint256)":"c6255626","swapOrders(uint256)":"b15db81f","togglePublicExecution(bool)":"6ffbe52e","transferOwnership(address)":"f2fde38b","updateBackendExecutor(address)":"360dcecc","updateExecutionFee(uint256)":"f5d06486","userOrders(address,uint256)":"856652e9","withdrawFees()":"476343ee"}}}}}